:020000040800F2
:100000002804002045010008B1030008610300082E
:10001000AD03000801020008D70B00080000000033
:1000200000000000000000000000000019080008A7
:100030000502000800000000450400082D09000822
:100040005F0100085F0100085F01000885060008E5
:100050005F0100085F0100085F0100085F01000800
:100060005F0100085F0100085F0100085F010008F0
:100070005F0100085F0100085F0100085F010008E0
:100080005F0100085F0100085F0100085F010008D0
:100090005F0100085F0100085F0100085F010008C0
:1000A0005F0100085F0100085F0100085F010008B0
:1000B0005F0100085F0100085F0100085F010008A0
:1000C0005F0100085F0100085F0100085F01000890
:1000D0005F010008CD0900085F0100085F0100080A
:1000E0005F0100085F0100085F0100085F01000870
:1000F0005F0100085F0100085F0100085F01000860
:100100005F0100085F0100085F0100085F0100084F
:100110005F0100085F0100085F0100085F0100083F
:100120005F0100085F0100085F0100085F0100082F
:10013000DFF80CD000F02EF800480047990E0008B8
:10014000280400200648804706480047FEE7FEE7EF
:10015000FEE7FEE7FEE7FEE7FEE7FEE7FEE7FEE777
:100160006D0900083101000830B50B46014600203A
:100170002022012409E021FA02F59D4205D303FA69
:1001800002F5491B04FA02F52844151EA2F10102EA
:10019000F1DC30BD064C074D06E0E06840F001039D
:1001A00094E8070098471034AC42F6D3FFF7C4FF39
:1001B0000C0F00082C0F000810B5012000F064F9A6
:1001C000002000F061F910BD08B501460020009044
:1001D000034800900098084400900098008808BDEB
:1001E000006C004008B500220092044A0092009A78
:1001F00002440092009A116008BD0000006C0040AB
:1002000000BFFEE770472DE9F041024600250026B9
:10021000002000230024002791F803C00CF00F05F4
:1002200091F803C00CF0100CBCF1000F03D091F852
:1002300002C04CEA050591F800C0BCF1000F31D0B6
:10024000146800202BE04FF0010C0CFA00F3B1F819
:1002500000C00CEA03069E4220D183004FF00F0C31
:100260000CFA03F7BC4305FA03FC4CEA040491F8CA
:1002700003C0BCF1280F06D14FF0010C0CFA00FCB2
:10028000C2F814C00AE091F803C0BCF1480F05D1D0
:100290004FF0010C0CFA00FCC2F810C0401C0828FA
:1002A000D1D31460B1F800C0BCF1FF0F34DD546845
:1002B00000202EE000F1080C4FF0010808FA0CF3C2
:1002C000B1F800C00CEA03069E4221D183004FF032
:1002D0000F0C0CFA03F7BC4305FA03FC4CEA0404C8
:1002E00091F803C0BCF1280F05D100F1080C08FA01
:1002F0000CF8C2F8148091F803C0BCF1480F07D184
:1003000000F1080C4FF0010808FA0CF8C2F8108050
:10031000401C0828CED35460BDE8F08101617047CD
:1003200010B5002400F092F904464FF46160B4FB6C
:10033000F0F00A4908704FF46160B4FBF0F100FB83
:1003400011403C21B0FBF1F0044948703C20B4FB63
:10035000F0F100FB11400149887010BD140000202D
:1003600000BFFEE708B52020ADF8000010208DF892
:10037000030003208DF802000121482000F074F8EA
:1003800069460848FFF73FFF69460748FFF73BFF0C
:1003900020210548FFF7C2FF20210248FFF7BEFFDA
:1003A00008BD0000000C01400018014000BFFEE73E
:1003B0007047000070B5002100230F22C47804B3F9
:1003C000154C246804F4E064C4F5E064210AC1F12A
:1003D0000403CA40447804FA03F1847814402143AA
:1003E00009010E4C0678A155047804F01F0501247C
:1003F000AC4005786D11AD0005F1E025C5F8004170
:1004000009E0047804F01F050124AC40044D06788F
:10041000761145F8264070BD0CED00E000E400E0E8
:1004200080E100E002490143024A11607047000088
:100430000000FA050CED00E0014908627047000079
:1004400000000E427047000029B1064AD2690243FB
:10045000044BDA6104E0034AD2698243014BDA615A
:10046000704700000010024029B1064A9269024319
:10047000044B9A6104E0034A92698243014B9A61FA
:1004800070470000001002400149086070470000FA
:100490004004424230B500210022002400232D4DAB
:1004A0006D6805F00C0121B1042905D0082923D17C
:1004B00005E0294D056022E0274D05601FE0254D30
:1004C0006D6805F47012234D6D6805F480340225C3
:1004D00005EB92421CB9214D554305600BE01D4DC3
:1004E0006D6805F400351DB11C4D5543056002E0F3
:1004F000194D5543056002E0174D056000BF00BF70
:10050000144D6D6805F0F0010909154D6B5C056827
:10051000DD4045600F4D6D6805F4E061090A104D3E
:100520006B5C4568DD4085600A4D6D6805F460517F
:10053000C90A0B4D6B5C4568DD40C560054D6D68B3
:1005400005F44041890B074D6B5CC568B5FBF3F5BD
:10055000056130BD0010024000127A0000093D0024
:10056000000000201000002010B5014600220023EA
:1005700000204A11012A02D1094C236806E0022A10
:1005800002D1074C236A01E0054C636A01F01F02A7
:10059000012494401C400CB1012000E0002010BD5B
:1005A0000010024000210B4A11700A4A203A82F8DA
:1005B0002010012802D0042808D103E00121054AB7
:1005C000117004E00521034A117000E000BF00BF74
:1005D0007047000020100240014908607047000089
:1005E0003C0442420249096A0143014A11627047D0
:1005F0000010024008B503208DF8000001208DF89E
:10060000030003208DF801008DF802006846FFF713
:10061000D1FE08BD024909888143014A1180704713
:10062000042800400348008840F010000149088079
:100630007047000004280040034800884FF6EF711F
:100640000840014908807047042800400021034801
:100650000188001F008841EA004070471C280040C4
:1006600001460020064A12880A40D0B2044A121FEE
:1006700012880A4012B108B1012000E00020704742
:100680000428004010B50120FFF7EAFF40B1FFF752
:1006900047FE054883784278017804A000F0FAFA12
:1006A0000120FFF7B7FF10BD14000020CAB5CAB182
:1006B000CAB1BCE4A3BA25643A25643A25640D0A9C
:1006C0000000000029B1064A12880243044B1A8038
:1006D00004E0034A12888243014B1A8070470000ED
:1006E0000028004010B50121C806FFF7ADFE01212A
:1006F0000807FFF7A9FE0120FFF79EFE0420FFF781
:1007000063FD4AF2A00188423CD1FFF755FD01206C
:10071000FFF748FF04E0601CC4B20A2000F084FB2D
:100720004120FFF721FF08B9FA2CF4DBFA2C01DB9A
:10073000012010BD4FF48070FFF754FF0120FFF738
:100740004BFF00F04DF800F055F801210846FFF787
:10075000B9FF00F045F8FFF765FF00F041F847F6F4
:10076000FF7000F02DF800F03BF80D4800F01AF88B
:1007700000F036F8FFF760FF4AF2A0010420FFF70F
:1007800031FD07E000F036F801210846FFF79AFF37
:1007900000F026F8FFF72EFFFFF7C2FD0020C8E7A4
:1007A0003A01010000B50246FFF73CFF100C034977
:1007B0000880091D0A80FFF73FFF00BD1828004090
:1007C00000B50246FFF72EFFC2F30340034908803D
:1007D000091D0A80FFF730FF00BD00000828004017
:1007E00000BF0348008800F020000028F9D07047BF
:1007F00004280040074800884FF6F7710840054973
:10080000088000BF0348008800F008000028F9D0E5
:100810007047000004280040704710B500F002F84F
:1008200010BD00000CB50020019000903348006816
:1008300040F480303149086000BF3048006800F45F
:10084000003000900198401C0190009818B9019860
:10085000B0F5A06FF1D12948006800F4003010B164
:100860000120009001E0002000900098012843D171
:100870002348006840F010002149086008460068DD
:1008800020F0030008600846006840F0020008609D
:100890001A48406819494860084640684860084658
:1008A000406840F4806048600846406820F47C104E
:1008B00048600846406840F4E81048600846006810
:1008C00040F08070086000BF0C48006800F00070C5
:1008D0000028F9D00948406820F003000749486023
:1008E0000846406840F00200486000BF0348406886
:1008F00000F00C000828F9D10CBD000000100240E7
:1009000000200240042808D14FF0E021096941F09D
:1009100004014FF0E022116107E04FF0E021096986
:1009200021F004014FF0E022116170477047000090
:1009300010B504466FF00400FFF7E4FFE11704EB85
:100940005171C910074A11601046006800EB400160
:10095000C1EBC0104FF6FF7101EAC00002490880E8
:1009600010BD0000180000201C00002010B5134826
:10097000006840F0010011490860084640681049CD
:1009800008400E494860084600680E4908400B4977
:1009900008600846006820F4802008600846406827
:1009A00020F4FE0048604FF41F008860FFF735FF19
:1009B0004FF000600449086010BD000000100240C4
:1009C0000000FFF8FFFFF6FE08ED00E010B540F272
:1009D00025510C4800F03AF8012812D1094800F0DE
:1009E000F1F8C4B22146074800F0F1F800BF4021F9
:1009F000044800F01EF80128F9D14021014800F018
:100A000003F810BD0038014001F40072B2F5007F18
:100A100000D100BFCA430280704721B1828942F4ED
:100A20000052828104E082894DF6FF731A40828170
:100A3000704702460020B1F5007F00D100BF138847
:100A40000B400BB1012000E00020704770B502465A
:100A5000002400230025002040F66A16B14200D190
:100A600000BFC1F3421501F01F03012606FA03F38C
:100A7000012D02D19689334006E0022D02D1168A5B
:100A8000334001E0968A33400C12012606FA04F442
:100A90001688344013B10CB1012000E0002070BD75
:100AA000F0B50346002400260025002040F66A1712
:100AB000B94200D100BF1846C1F3421401F01F062D
:100AC000012707FA06F5012C01D10C3004E0022CB5
:100AD00001D1103000E014301AB107682F430760CD
:100AE00002E00768AF430760F0BD00002DE9F04762
:100AF00086B005460E460024A24600BFA146002748
:100B0000B08900B100BF2F462C8A4CF6FF7004401C
:100B1000F08804432C82AC894EF6F3100440B08870
:100B200031890843718908430443AC81AC8A4FF68C
:100B3000FF400440B0890443AC8201A8FFF7AAFC3F
:100B40001F48874202D1DDF810A001E0DDF80CA0BB
:100B5000A88900F4004040B10AEBCA0000EB0A107B
:100B600031684900B0FBF1F807E00AEBCA0000EB7E
:100B70000A1031688900B0FBF1F86420B8FBF0F08E
:100B800004012009642101FB1089A88900F40040B8
:100B900040B1322000EBC900B0FBF1F000F00700DB
:100BA000044308E0322000EB09106421B0FBF1F0AF
:100BB00000F00F0004432C8106B0BDE8F087000070
:100BC0000038014001468888C0F308007047C1F32F
:100BD00008028280704700BFFEE7000010B586B0B3
:100BE000044601218803FFF73FFC01210420FFF7A1
:100BF0003BFC4FF40070ADF8140003208DF8160094
:100C000018208DF8170005A92048FFF7FCFA4FF4CB
:100C10008060ADF8140003208DF8160004208DF8D4
:100C2000170005A91948FFF7EEFA01940020ADF866
:100C300010000C20ADF80E000020ADF80C00ADF84F
:100C40000A00ADF8080001A91148FFF74FFF252061
:100C50008DF8000001208DF8030003208DF80100BD
:100C60008DF802006846FFF7A5FB01210848FFF751
:100C7000D4FE40210648FFF7C7FE012240F225516D
:100C80000348FFF70DFF06B010BD0000000801404B
:100C9000003801400FB4054B10B503A9044A02986F
:100CA00000F018F810BC5DF814FB0000750E000889
:100CB0002000002002E008C8121F08C1002AFAD153
:100CC00070477047002001E001C1121F002AFBD1CC
:100CD000704700002DE9FF4F89B09B460446002570
:100CE00006E025280BD05A460B999047641C6D1CD2
:100CF00020780028F5D10DB02846BDE8F08F0027F8
:100D0000B8460122474900E0074314F8013F203B61
:100D100002FA03F00842F7D120782E2819D114F8EE
:100D2000010F47F004072A280ED06FF02F02207819
:100D3000A0F1300109290CD808EB880102EB410130
:100D400000EB0108641CF2E70A98641C50F8048B5D
:100D50000A9020780028CED0642808D0692806D0D0
:100D600075281ED05A460B9990476D1C58E00A9979
:100D70004FF00A0901C90A91002802DA40422D21E8
:100D800002E0390504D52B218DF82010012103E064
:100D9000F90704D02021F7E78A4608AE0DE00021CC
:100DA000FAE70A994FF00A0901C90A91F7E749469B
:100DB000FFF7DAF9303106F8011D0028F7D1ADEB65
:100DC000060000F12009780701D44FF00108C8455A
:100DD00002DDA8EB090000E000208046002706E0C5
:100DE00008A85A46C05D0B9990476D1C7F1C57455B
:100DF000F6DB04E030205A460B9990476D1CB8F1A1
:100E00000001A8F10108F5DC05E016F8010B5A46CF
:100E10000B9990476D1CB9F10001A9F10109F4DCAF
:100E2000641C65E7092801000146114A12884A43FB
:100E30004FF0E0235A6100229A611A46126942F08B
:100E400001021A6100BF4FF0E022106900F00102B8
:100E50001AB100F48032002AF5D04FF0E022126976
:100E600022F001024FF0E0231A6100229A617047DC
:100E70001C00002070B504460D46E1B20548FFF79E
:100E8000A6FE00BF80210348FFF7D3FD0028F9D05C
:100E9000204670BD0038014000244FF4A060FFF7E9
:100EA000C1FAFFF75FFA4FF41650FFF797FE48209C
:100EB000FFF73EFDFFF716FC10B10DA0FFF7EAFEAD
:100EC0000EA0FFF7E7FE12E0601CC4B2142094FBF2
:100ED000F0F100FB114038B90B48006808B9012057
:100EE00000E00020084908600A20FFF79DFFEBE7BB
:100EF000525443CAB1D6D3B9CAD5CF00CFB5CDB3BA
:100F0000C6F4B6AF00000000948121422C0F000807
:100F10000000002024000000B40C0008500F00085E
:100F20002400002004040000C40C0008000000009D
:100F3000010203040102030406070809020406086B
:100F400000000000000000000000000000000000A1
:0400000508000131BD
:00000001FF
