:020000040800F2
:1000000068060020CD010008D90600086705000831
:10001000FD050008870200083909000800000000FB
:10002000000000000000000000000000850700083C
:100030008B02000800000000610700089908000812
:10004000E7010008E7010008E7010008E7010008F0
:10005000E7010008E70100088D020008E701000839
:10006000BD020008E902000819030008E7010008C2
:10007000E7010008E7010008E7010008E7010008C0
:10008000E7010008E7010008E7010008E7010008B0
:10009000E7010008E7010008E7010008E7010008A0
:1000A000E7010008E7010008E7010008E701000890
:1000B000E7010008E7010008E7010008E701000880
:1000C000E7010008E7010008E7010008E701000870
:1000D000E7010008E7010008E7010008E701000860
:1000E000E7010008E7010008E7010008E701000850
:1000F000E7010008E7010008E7010008E701000840
:10010000E7010008E7010008E7010008E70100082F
:10011000E7010008E7010008E7010008E70100081F
:10012000E7010008E7010008E7010008E70100080F
:1001300000F002F800F03AF80AA090E8000C8244BF
:100140008344AAF10107DA4501D100F02FF8AFF29C
:10015000090EBAE80F0013F0010F18BFFB1A43F0A5
:10016000010318474408000064080000103A24BF47
:1001700078C878C1FAD8520724BF30C830C144BF0C
:1001800004680C607047000000230024002500264E
:10019000103A28BF78C1FBD8520728BF30C148BFEA
:1001A0000B6070471FB51FBD10B510BD00F031F8D2
:1001B0001146FFF7F7FF00F0E7FB00F04FF803B43C
:1001C000FFF7F2FF03BC00F057F800000948804732
:1001D00009480047FEE7FEE7FEE7FEE7FEE7FEE729
:1001E000FEE7FEE7FEE7FEE704480549054A064B41
:1001F00070470000D908000831010008680000209D
:1002000068060020680200206802002070477047DE
:100210007047754600F02CF8AE4605006946534617
:1002200020F00700854618B020B5FFF7DDFFBDE8D8
:1002300020404FF000064FF000074FF000084FF04D
:10024000000B21F00701AC46ACE8C009ACE8C009DE
:10025000ACE8C009ACE8C0098D46704710B504464B
:10026000AFF300802046BDE81040FFF7A8BF0000B4
:10027000004870470800002001491820ABBEFEE787
:1002800026000200704700BFFEE7704710B501204E
:1002900000F05EF8012809D10A2000F04FFB054864
:1002A0000068012802D1002003490860012000F005
:1002B00049F810BD000121429481214210B504206B
:1002C00000F046F8012809D10A2000F037FB054864
:1002D000006818B9002003498C310860042000F040
:1002E00031F810BD0801234210B5082000F030F8A5
:1002F000012808D10A2000F021FB0548006810B948
:10030000012004490860082000F01CF810BD00001E
:100310000C0123429481214210B5102000F018F8FE
:10032000012809D10A2000F009FB0548006818B926
:100330000120034984310860102000F003F810BD4B
:100340001001234201490860704700001404014075
:10035000014600200022074B1B6803EA0102054BFF
:1003600014331B680B4013B10AB1012000E00020D8
:100370007047000000040140002123498279002ACF
:100380003AD00A46126803689A430B461A600A1D5F
:10039000126803689A430B1D1A60027911440A68B7
:1003A00003681A430A60184A0832126803689A43BD
:1003B000154B08331A601A1D126803689A43124BD2
:1003C0000C331A604279102A0ED11A1F1268036882
:1003D0001A430D4B08331A601A1D126803681A433A
:1003E000094B0C331A600DE00749427911440A6841
:1003F00003681A430A6005E0027911440A68036839
:100400009A430A60704700000004014030B50022A2
:100410008B071C0F0F2303FA04F20B4B8C1053F8BD
:1004200024309343084C8D1044F8253023468C101B
:1004300053F824308C07240F00FA04F42343024CB1
:100440008D1044F8253030BD080001402DE9F04101
:10045000024600250026002000230024002791F8F2
:1004600003C00CF00F0591F803C00CF0100CBCF1A8
:10047000000F03D091F802C04CEA050591F800C0C6
:10048000BCF1000F31D0146800202BE04FF0010CBC
:100490000CFA00F3B1F800C00CEA03069E4220D12A
:1004A00083004FF00F0C0CFA03F7BC4305FA03FC72
:1004B0004CEA040491F803C0BCF1280F06D14FF0B8
:1004C000010C0CFA00FCC2F814C00AE091F803C059
:1004D000BCF1480F05D14FF0010C0CFA00FCC2F83A
:1004E00010C0401C0828D1D31460B1F800C0BCF182
:1004F000FF0F34DD546800202EE000F1080C4FF0AF
:10050000010808FA0CF3B1F800C00CEA03069E4299
:1005100021D183004FF00F0C0CFA03F7BC4305FA0E
:1005200003FC4CEA040491F803C0BCF1280F05D188
:1005300000F1080C08FA0CF8C2F8148091F803C016
:10054000BCF1480F07D100F1080C4FF0010808FA80
:100550000CF8C2F81080401C0828CED35460BDE8C7
:10056000F0810161704700BFFEE7000008B501217E
:10057000442000F0F7F828208DF803000120ADF8A2
:10058000000003208DF8020069460848FFF75EFF6F
:1005900048208DF803001C20ADF8000003208DF8E2
:1005A000020069460248FFF751FF08BD00080140FC
:1005B0000018014008B52020ADF8000010208DF88B
:1005C000030003208DF802000121482000F0CAF842
:1005D00069460848FFF73AFF69460748FFF736FFC4
:1005E00020210548FFF7BDFF20210248FFF7B9FF92
:1005F00008BD0000000C01400018014000BFFEE7EC
:100600000EB50121084600F0ADF804210846FFF7B9
:10061000FDFE03210420FFF7F9FE02210420FFF76D
:10062000F5FE00210846FFF7F1FE06208DF80000D8
:1006300001208DF8030002208DF8010003208DF8C1
:100640000200684600F04AF808208DF800000120FA
:100650008DF8030002208DF801008DF80200684635
:1006600000F03CF809208DF8000001208DF803000F
:1006700002208DF8010001208DF80200684600F08C
:100680002DF80A208DF8000001208DF803000220CB
:100690008DF8010000208DF80200684600F01EF879
:1006A000012001908DF80A0000208DF80800082034
:1006B0008DF8090001A8FFF75FFE1C2001900120C2
:1006C0008DF80A0000208DF808000C208DF8090034
:1006D00001A8FFF751FE0EBD7047000070B5002164
:1006E00000230F22C47804B3154C246804F4E0649A
:1006F000C4F5E064210AC1F10403CA40447804FA55
:1007000003F184781440214309010E4C0678A15569
:10071000047804F01F050124AC4005786D11AD008C
:1007200005F1E025C5F8004109E0047804F01F0553
:100730000124AC40044D0678761145F8264070BD82
:100740000CED00E000E400E080E100E0024901433C
:10075000024A1160704700000000FA050CED00E04D
:100760007047000029B1064A92690243044B9A611E
:1007700004E0034A92698243014B9A61704700008A
:1007800000100240704710B500F002F810BD0000E4
:100790000CB50020019000903348006840F4803090
:1007A0003149086000BF3048006800F40030009014
:1007B0000198401C0190009818B90198B0F5A06FFD
:1007C000F1D12948006800F4003010B101200090F8
:1007D00001E0002000900098012843D123480068E0
:1007E00040F01000214908600846006820F003002E
:1007F00008600846006840F0020008601A48406837
:10080000194948600846406848600846406840F416
:10081000806048600846406820F47C1048600846C4
:10082000406840F4E81048600846006840F0807076
:10083000086000BF0C48006800F000700028F9D084
:100840000948406820F003000749486008464068AE
:1008500040F00200486000BF0348406800F00C0010
:100860000828F9D10CBD0000001002400020024011
:10087000042808D14FF0E021096941F004014FF04C
:10088000E022116107E04FF0E021096921F0040145
:100890004FF0E022116170477047000010B5044628
:1008A0006FF00400FFF7E4FFE11704EB5171C9108A
:1008B000074A11601046006800EB4001C1EBC01010
:1008C0004FF6FF7101EAC0000249088010BD000028
:1008D000000000200400002010B51348006840F01C
:1008E00001001149086008464068104908400E4957
:1008F0004860084600680E4908400B4908600846F1
:10090000006820F4802008600846406820F4FE005B
:1009100048604FF41F008860FFF735FF4FF000601C
:100920000449086010BD0000001002400000FFF8FC
:10093000FFFFF6FE08ED00E000BFFEE70146114AAA
:1009400012884A434FF0E0235A6100229A611A4606
:10095000126942F001021A6100BF4FF0E0221069F3
:1009600000F001021AB100F48032002AF5D04FF0F5
:10097000E022126922F001024FF0E0231A61002206
:100980009A617047040000204FF4A060FFF7DEFE7C
:10099000FFF736FEFFF7EAFDFFF70CFE4820FFF7F2
:1009A0007DFF00BFFEE70000C8090008000000202E
:1009B000080000006C010008D009000808000020B1
:1009C0006006000088010008000000000000000030
:0400000508000131BD
:00000001FF
