:020000040800F2
:1000000048320020F91A0008B1070008B3070008B9
:10001000B7070008BB070008BF0700080000000082
:10002000000000000000000000000000C3070008FE
:10003000C507000800000000FBC600088118000882
:10004000131B0008131B0008131B0008131B0008D8
:10005000131B0008131B0008131B0008131B0008C8
:10006000131B0008131B0008131B0008131B0008B8
:10007000131B0008131B0008131B0008131B0008A8
:10008000131B0008131B0008131B0008131B000898
:10009000131B0008131B0008131B0008131B000888
:1000A000131B0008131B0008131B0008131B000878
:1000B000131B0008131B0008131B0008131B000868
:1000C000131B0008131B0008131B0008131B000858
:1000D000131B0008651A0008131B0008131B0008F7
:1000E000131B0008131B0008131B0008131B000838
:1000F000131B0008131B0008131B0008131B000828
:10010000131B0008131B0008131B0008131B000817
:10011000131B0008131B0008131B0008131B000807
:10012000131B0008131B0008131B0008131B0008F7
:1001300000F002F800F062F80AA090E8000C824497
:100140008344AAF10107DA4501D100F057F8AFF274
:10015000090EBAE80F0013F0010F18BFFB1A43F0A5
:1001600001031847B0E50000D0E500000A444FF055
:10017000000C10F8013B13F0070408BF10F8014B06
:100180001D1108BF10F8015B641E05D010F8016B4B
:10019000641E01F8016BF9D113F0080F1EBF10F8AF
:1001A000014BAD1C0C1B09D16D1E58BF01F801CBD2
:1001B000FAD505E014F8016B01F8016B6D1EF9D555
:1001C0009142D6D37047000000230024002500266A
:1001D000103A28BF78C1FBD8520728BF30C148BFAA
:1001E0000B60704778290CF03B8173290CF0058275
:1001F000002070471FB51FBD10B510BD0CF030FAC0
:100200001146FFF7F7FF00F082F90CF04EFA03B445
:10021000FFF7F2FF03BC01F0C7FB0000FEB5054687
:100220000E46FD480078401CFB49087080201021D4
:100230000323CDE90010F84802786F21B62001F0C1
:1002400053F9F54800780E2190FBF1F201FB120002
:10025000F24931F8200084B240F23913E9228321B7
:100260007E20009400F089FEEDA00CF08FF802AA29
:100270000021F04808F011FCFEBDFEB505460E4613
:10028000802010210323CDE90010EB4802786F2174
:100290003E2001F029F9E84800780E2190FBF1F2A8
:1002A00001FB1200DD4931F8200084B240F239131D
:1002B000722283210620009400F05FFEDE48007861
:1002C000401CDD49087002AA0021DA4808F0E5FB6D
:1002D000FEBD8AB01822D9A103A80CF0EDF827E0E2
:1002E000DCA00CF053F809A800231A461946009028
:1002F000D04808F095F9152203A9D9480CF0DCF88C
:100300004FF4967001F021FBD549D6A00CF03EF8D1
:10031000D6480068C043D649C1F8940109A808210D
:1003200000230122CDE90010194618460BF047F8CA
:10033000D6E70EB53FE0002001F02CFA0446012C70
:100340000BD0022C11D0042C1FD102A9C9480BF0EC
:1003500052FCC9A00CF01AF817E002A9CA480BF029
:100360004AFCCAA00CF012F80FE002AB00221146C2
:10037000C0480BF0ECFC02AB00221146C2480BF067
:10038000E6FCC6A00CF002F800BF00BF681CC5B2B6
:10039000322D06D10025C6480068C043C549C1F8C2
:1003A000940102A808210A230022CDE90010114679
:1003B00010460BF004F8BEE730B58BB004460025BC
:1003C00000BF02F013FD0AA808F087FC0AAA012169
:1003D000084604F00CFD00BF00BF00BF02F03EFE67
:1003E000054600BF00BFB4480078401CB249087001
:1003F00000BF00BF284602F035FE00BF00BF00BFAF
:100400000AA8032100220592CDE906210890104692
:1004100040210622A94BCDE90132CDE90310042089
:100420000023AFF2F102A6A10090A84809F02CF831
:100430000AA8032100220592CDE906210890104662
:1004400040210622A24BCDE90132CDE9031005205F
:100450000023AFF281129FA10090A14809F014F887
:100460000AA80021AFF2ED120223CDE90032CDE956
:100470000210C82364229BA17E480BF0DEF90AA873
:100480000021AFF267220123CDE90032CDE902104D
:100490000B46C82295A17C480BF0CFF90AAB01228C
:1004A00094A1644807F08DFF00BF00BF00BF02F0B9
:1004B000D5FD054600BF00BF7F480078401E7E493D
:1004C000087008460078A0B98C480088002809DD2B
:1004D00000BF00BF284602F0C5FD00BF00BF05F009
:1004E0006EF80DE000BF00BF284602F0BBFD00BF64
:1004F00006E000BF00BF284602F0B4FD00BF00BF09
:1005000000BF0AA97E4809F013F90BB030BD10B541
:100510008AB0002401F0C0F94FF4A06001F00CFB98
:100520004FF4E13001F04FFA00F03EFA01F018F913
:1005300000F09CFB4FF47840724908806C23EF2256
:100540001946002000F092FD40F23F1377226C2103
:10055000104600F08BFD00206A4908804FF49D731F
:1005600073226E21052000F071FE8223732219464A
:10057000052000F07BFD4FF49D73EA226E217D2063
:1005800000F064FE8223EA2219467D2000F06EFD11
:100590001F205D4908805DA010210B466E22CDE929
:1005A00000106F21062000F0FEFF5BA010210B461B
:1005B0006E22CDE900106F217E2000F0F4FF09A823
:1005C00004F0E6F900BF00BF00BF02F047FD04469B
:1005D00000BF00BF38480078401C3749087000BF92
:1005E00000BF204602F03EFD00BF00BF00BF09A8CB
:1005F000032100220592CDE90621089010464021F2
:100600000622484BCDE90132CDE903100320002337
:10061000AFF25B2288E000003900002000000020DB
:10062000B6A8CAB1C6F732D4CBD0D0BDE1CAF80D56
:100630000A00000010070020380000205365636F97
:100640006E64207461736B2052756E6E696E6721E3
:10065000000000000D0AC8CECEF1323A0D0A0000AB
:100660003807002025730D0A000000009401234282
:1006700000002342A8060020BFAAC6F4B6A8CAB14B
:10068000C6F7310D0A000000DC060020BFAAC6F440
:10069000B6A8CAB1C6F7320D0A000000B9D8B1D564
:1006A000B6A8CAB1C6F731BACD320D0A00000000B3
:1006B0009481214200802142F8000020E4030020C0
:1006C0004C434431207461736B0000002003002010
:1006D000A80500205441534B32207461736B000015
:1006E000E4040020746D723100000000746D7232F9
:1006F000000000004D595F53454D0000BC00002034
:100700005C010020500000205200002054494D455B
:1007100052313A303030000054494D4552323A306F
:1007200030300000200200201BA100901D4808F07E
:10073000ABFE00BF00BF00BF02F090FC044600BF4C
:1007400000BF19480078401E174908700846007815
:10075000A0B916480088002809DD00BF00BF204668
:1007600002F080FC00BF00BF04F029FF0DE000BFD5
:1007700000BF204602F076FC00BF06E000BF00BFCD
:10078000204602F06FFC00BF00BF00BF09A804F0C4
:10079000CEFB00200AB010BD7374617274207461C6
:1007A000736B00005C010020F8000020BC000020FA
:1007B000704700BFFEE700BFFEE700BFFEE700BFD7
:1007C000FEE77047704700000CB5002001900090D4
:1007D0006C48006840F480306A49086000BF69488E
:1007E000006800F4003000900198401C01900098CF
:1007F00018B90198B0F5A06FF1D16248006800F413
:10080000003010B10120009001E00020009000981D
:10081000012843D15C48006840F010005A49086044
:100820000846006820F0030008600846006840F0B1
:1008300002000860534840685249486008464068D2
:1008400048600846406840F4806048600846406858
:1008500020F47C1048600846406840F4E810486086
:100860000846006840F08070086000BF4548006896
:1008700000F000700028F9D04248406820F00300E2
:10088000404948600846406840F00200486000BFA8
:100890003C48406800F00C000828F9D10CBD10B5A8
:1008A000FFF792FF10BD10B53648006840F0010018
:1008B0003449086008464068344908403149486076
:1008C00008460068324908402E490860084600681A
:1008D00020F4802008600846406820F4FE0048604C
:1008E0004FF41F008860FFF7DAFF4FF000602949DE
:1008F000086010BD10B5002100200022214B5B686C
:1009000003F00C0121B1042906D0082928D107E001
:10091000214B224C236027E01F4B204C236023E017
:10092000184B5B6803F47010164B5B6803F480325D
:10093000022303EB904022B9194B4343174C236029
:100940000DE0104B5B6803F4003323B1144B4343B9
:10095000124C236003E0104B4343104C236003E030
:100960000D4B0E4C236000BF00BF064B5B68C3F30A
:1009700003130C4CE15C094B1B68CB40074C236014
:1009800010BD000000100240002002400000FFF8EF
:10099000FFFFF6FE08ED00E000127A003C000020A8
:1009A00000093D004000002008B50121482001F069
:1009B00051FE2020ADF8000010208DF80300032028
:1009C0008DF802006946094801F084F920210748A2
:1009D00001F02DFA2020ADF800006946044801F02E
:1009E00079F92021024801F022FA08BD000C0140EB
:1009F0000018014008B50120ADF8000010208DF866
:100A0000030003208DF802006946FE4801F062F9F8
:100A10004CF23370ADF8000018208DF8030003206D
:100A20008DF802006946F84801F054F94FF68070DD
:100A3000ADF8000018208DF8030003208DF80200A7
:100A40006946F24801F046F941F20100ADF80000B4
:100A500018208DF8030003208DF802006946EC4849
:100A600001F038F908BD00B59DB00121080201F080
:100A7000E4FD01200790002008900F20099000203D
:100A80000A900B900C904FF080500D900020009039
:100A900001900320029000200390049005904FF0F5
:100AA0008050069006200E9000200F90109010208D
:100AB00011900020129014901390159016904FF4FE
:100AC00080501790002018904FF48040199000201B
:100AD0001A9007A81B90CDF870D00EA801F06AFEFE
:100AE0000121062001F0CEFFCA49CBA00BF04EFC3D
:100AF000C849891CCBA00BF049FCC649CDA00BF01E
:100B000045FC1DB000BDC34908807047C149891C20
:100B10000880704700B503460A461846FFF7F3FF02
:100B20001046FFF7F3FF00BD00F47F41B94A921C65
:100B30001180114608807047B648801C00887047B5
:100B400000B5024672B93620FFF7DDFF0820FFF737
:100B5000DDFF4FF4A070BB494880F02008800020E2
:100B600088710DE03620FFF7CEFF6820FFF7CEFF3B
:100B7000F020B44948804FF4A070088001208871AB
:100B800000BD70B504460D462A20FFF7BCFF26467F
:100B9000E11704EB1161C1F30F20FFF7B7FFE11775
:100BA00004EB11610912A4EB012188B2FFF7AEFF3B
:100BB0001646D11702EB1161C1F30F20FFF7A6FF14
:100BC0001646D11702EB11610912A2EB012188B27E
:100BD000FFF79CFF2B20FFF796FF2E46E91705EB4A
:100BE0001161C1F30F20FFF791FFE91705EB1161C8
:100BF0000912A5EB012188B2FFF788FF1E46D9171D
:100C000003EB1161C1F30F20FFF780FF1E46D917D8
:100C100003EB11610912A3EB012188B2FFF776FF04
:100C20002C20FFF770FF70BD70B5064685484088E0
:100C3000401E83B283480088401E82B200210846CD
:100C4000FFF79FFF00240CE0002504E03046FFF78B
:100C50006BFF681C85B27B484088A842F6DC601CAC
:100C600084B278480088A042EEDC70BD10B5012146
:100C7000080201F0E2FC01214FF4B47001F0EAFC3B
:100C8000FFF7B8FEFFF7EFFE322000F05EFED32044
:100C9000FFF739FF5F48801C00886A4988805D48FB
:100CA000801C008888805B48801C008888800846FB
:100CB00080884FF6FF7101EA00206249888008466B
:100CC00080885449891C098808435E498880084601
:100CD00081885DA00BF05AFBCB20FFF714FF392071
:100CE000FFF714FF2C20FFF711FF0020FFF70EFF86
:100CF0003420FFF70BFF0220FFF708FFCF20FFF79C
:100D000002FF0020FFF702FFA220FFF7FFFEF02006
:100D1000FFF7FCFEE820FFF7F6FE8420FFF7F6FE63
:100D20001120FFF7F3FE7A20FFF7F0FEEA20FFF72D
:100D3000EAFE6620FFF7EAFE0020FFF7E7FEED205F
:100D4000FFF7E1FE5520FFF7E1FE0120FFF7DEFE91
:100D50002320FFF7DBFE0120FFF7D8FEF720FFF787
:100D6000D2FE2020FFF7D2FEC020FFF7CCFE1C20D1
:100D7000FFF7CCFEC120FFF7C6FE1320FFF7C6FE2B
:100D8000C520FFF7C0FE2320FFF7C0FE3F20FFF77E
:100D9000BDFEC720FFF7B7FEA520FFF7B7FEB120C5
:100DA000FFF7B1FE0020FFF7B1FE1720FFF7AEFE00
:100DB0003A20FFF7A8FE5520FFF7A8FEB620FFF760
:100DC000A2FE0A20FFF7A2FEA220FFF79FFE272027
:100DD000FFF79CFE0020FFF799FE3620FFF793FEF9
:100DE0000820FFF793FEF220FFF78DFE0220FFF7A9
:100DF0008DFE2620FFF787FE0120FFF787FEE0200B
:100E00002AE00000000C01400014014000180140DD
:100E100000200140FE07006C434D44B5D8D6B725ED
:100E2000780D0A0044415441B5D8D6B725780D0A4B
:100E300000000000CAD7B5D8D6B7B5D8D6B7257840
:100E40000D0A000054000020204C43442049443A3D
:100E500025780D0A00000000FFF755FE0F20FFF770
:100E600055FE1420FFF752FE1320FFF74FFE0C2013
:100E7000FFF74CFE0E20FFF749FE0520FFF746FE68
:100E80004520FFF743FE8520FFF740FE3620FFF7A1
:100E90003DFE0920FFF73AFE1420FFF737FE05203C
:100EA000FFF734FE0920FFF731FE0320FFF72EFE87
:100EB0000020FFF72BFEE120FFF725FE0020FFF7C3
:100EC00025FE2420FFF722FE2620FFF71FFE032029
:100ED000FFF71CFE0F20FFF719FE0420FFF716FE98
:100EE0003F20FFF713FE1420FFF710FE5220FFF7FC
:100EF0000DFE0420FFF70AFE1020FFF707FE0E206C
:100F0000FFF704FE3820FFF701FE3920FFF7FEFD52
:100F10000F20FFF7FBFD2A20FFF7F5FD0020FFF76C
:100F2000F5FD0020FFF7F2FD0020FFF7EFFDEF20B9
:100F3000FFF7ECFD2B20FFF7E6FD0020FFF7E6FDB5
:100F40000020FFF7E3FD0120FFF7E0FD3F20FFF762
:100F5000DDFD1120FFF7D7FD782000F0F6FC2920F9
:100F6000FFF7D1FD0020FFF7EBFD4FF6FF70FFF715
:100F70005BFE0120F849086010BD2DE9F0430446EE
:100F80000D4616461F46DDF81C80B44201DCBD420A
:100F900001DDBDE8F0833B46324629462046FFF797
:100FA000F0FD301B401C84B2781B401C85B20BE066
:100FB000A94602E04046FFF7B7FDB9F10000A9F1EC
:100FC00001011FFA81F9F5D1201EA4F101018CB2B3
:100FD000EED100BFDDE730B504460D462B46224674
:100FE00029462046FFF7CDFDDC480088FFF79CFD31
:100FF00030BD70B504460D4616462B46224629469E
:101000002046FFF7BEFD3046FFF78EFD70BD2DE98F
:10101000F04104460D4600260027B046D04800881F
:10102000A04203DDCE484088A84202DC0020BDE893
:10103000F0812B46224629462046FFF7A2FD2E20AE
:10104000FFF761FDFFF778FD0646FFF775FD0646E1
:10105000FFF772FD0746FFF76FFD8046F012C002F2
:10106000B91240EA411040EAE820E0E72DE9FF4FDD
:1010700084B081468A460020039002900698A0EB37
:1010800009050798A0EB0A06CDF80490CDF800A05A
:10109000002D01DD012705E00DB9002702E04FF02A
:1010A000FF376D42002E02DD4FF0010806E016B951
:1010B0004FF0000802E04FF0FF387642B54201DD04
:1010C0002C4600E034464FF0000B21E0009A91B22C
:1010D000019A90B2FFF77FFF03982844039002988B
:1010E000304402900398A04205DD0398001B039052
:1010F0000198384401900298A04205DD0298001B37
:1011000002900098404400900BF101001FFA80FB10
:10111000601C8345DADD08B0BDE8F08F2DE9FF4F94
:1011200084B081468A460020029083460698A0EB50
:1011300009050798A0EB0A06CDF80490CDF800A0A9
:10114000002D01DD012705E00DB9002702E04FF079
:10115000FF376D42002E02DD4FF0010806E016B9A0
:101160004FF0000802E04FF0FF387642B54201DD53
:101170002C4600E03446002003901EE0009A91B215
:10118000019A90B2119AFFF734FF02982844029016
:10119000B3440298A04205DD0298001B029001981A
:1011A00038440190A34504DDABEB040B00984044A8
:1011B00000900398401C80B20390611C0398884201
:1011C000DCDD08B0BDE8F08FF0B504460D461746EB
:1011D00005F1010C1FFA8CF304F1010C1FFA8CF2DB
:1011E000A5F1010C1FFA8CF1A4F1010C1FFA8CF08F
:1011F000FFF7C7FC002604E03846FFF795FC701C9B
:10120000C6B2092EF8DB211D8AB2211F88B22B46F7
:101210002946FFF7B6FC002604E03846FFF784FCB9
:10122000701CC6B2092EF8DB281D83B2281F81B2BC
:1012300022462046FFF7A5FC002604E03846FFF7CB
:1012400073FC701CC6B2092EF8DBF0BDF0B5044685
:101250000D4616461F462B46324629462046FFF7C6
:1012600005FF3B46224629462046FFF7FFFE3B4648
:10127000324639462046FFF7F9FE3B4632462946BC
:101280003046FFF7F3FEF0BD2DE9F04306460F466A
:101290009046002445460320A0EB48093CE07A1B19
:1012A00091B2321990B2FFF796FE3A1B91B27219C1
:1012B00090B2FFF790FE3A1991B2721990B2FFF70F
:1012C0008AFE7A1991B2321990B2FFF784FE7A1928
:1012D00091B2321B90B2FFF77EFE3A1991B2721BA7
:1012E00090B2FFF778FE7A1B91B2321B90B2FFF7F3
:1012F00072FE3A1B91B2721B90B2FFF76CFE641C37
:10130000B9F1000F03DAA000801D814404E0601BE6
:1013100080000A3081446D1EAC42C0DDBDE8F08320
:101320002DE9F84F80460E4617461C46B346204628
:10133000E31704EB5373DB1021464FEAE47C04EB24
:101340005C7C4FEAEC0CA4EBCC0CBCF1000F09D098
:101350004FF0010C08E00000808121425000002085
:10136000540000204FF0000C6344224604EBD27C72
:101370004FEA6C0C03FB0CF3DBB20093A7F12000E7
:10138000C7B2002556E00C2C07D107EB4700ED490A
:1013900001EB800010F8059013E0102C05D1EA480D
:1013A00000EB071010F805900BE0182C07D107EBA5
:1013B000C700E64901EB800010F8059001E0BDE8A8
:1013C000F88F4FF0000A2FE009F0800030B1E048BC
:1013D000028831464046FFF70CFE07E00A9828B91C
:1013E000DC48028831464046FFF703FE4FEA496079
:1013F0004FEA1069701C86B2D7484088B04200DCC2
:10140000DDE7A6EB0B00A0420AD15E4608F1010021
:101410001FFA80F8D0480088404500DCCFE706E09E
:101420000AF1010000F0FF0ABAF1080FCCDB00BF9F
:10143000681CC5B200988542A5DB00BFBFE710B5A8
:101440000246012000E050430B1EA1F10104E1B26D
:10145000F9D110BD2DE9FF4F81B0074691461E46D8
:101460000E9D4FF0000A002439E0301B401EC1B22F
:101470000A20FFF7E4FFB9FBF0F00A21B0FBF1F21C
:1014800001FB1208BAF1000F16D1701EA04213DD45
:10149000B8F1000F0ED10020AB4605EBDB7149100F
:1014A00001FB0471009088B22B4620220299FFF7BD
:1014B00037FF12E04FF0010A0020AB4605EBDB716D
:1014C000491001FB0471009088B208F13001CAB2E2
:1014D0002B460299FFF724FF00BF601CC4B2B44240
:1014E000C3DB05B0BDE8F08F2DE9FF4F82B00646A3
:1014F00092461F46DDE90F480020019000254DE08F
:10150000781B401EC1B20A20FFF799FFBAFBF0F02A
:101510000A21B0FBF1F201FB1209019850BB781EC1
:10152000A84227DDB9F1000F22D108F0800078B180
:1015300008F00100A34604EBDB71491001FB0561D3
:10154000009088B2234630220399FFF7E9FE0EE0AF
:1015500008F00100A34604EBDB71491001FB0561B3
:10156000009088B2234620220399FFF7D9FE13E0AA
:101570000120019008F00100A34604EBDB71491043
:1015800001FB0561009088B209F13001CAB223461F
:101590000399FFF7C5FE00BF681CC5B2BD42AFDBB3
:1015A00006B0BDE8F08F2DE9F84704460D46904699
:1015B0009946DDE9096704F0FF0A08EB04001FFA09
:1015C00080F809EB05001FFA80F916E0444502DBBC
:1015D0005446A81985B24D4500DB14E00020009068
:1015E0003A78334629462046FFF79AFE304606EB06
:1015F000D07104EB61018CB27F1C38787E2802DC4C
:1016000038782028E2DA00BFBDE8F8872DE9F84FE6
:1016100004460F461546A346009760E0002657E0B3
:1016200006EB8600C0EB86104C4911F810002978B3
:1016300088424BD106EB8600C0EB8610474901EB90
:10164000400040786978884240D14FF000083AE085
:1016500006EB8600C0EB8610404901EB4000801C81
:1016600010F808A04FF0000926E00AF0800080285A
:1016700006D13748028839462046FFF7BAFC05E014
:101680003448028839462046FFF7B3FC4FF6FF7016
:1016900000EA4A0A601C84B2A4EB0B00202807D1A0
:1016A0005C46781C87B20098381A1D2800D1009F2C
:1016B00009F1010000F0FF09B9F1080FD5DB08F1CD
:1016C000010000F0FF08B8F1740FC1DB701CC6B256
:1016D000142EA5DBAD1C04F1200084B2A3462878AB
:1016E00000289BD1BDE8F88F2DE9F04F8046894650
:1016F00015461E46DDF824A000270024A34609EB6A
:101700000600401E83B208EB0500401E82B2494627
:101710004046FFF736FA05FB06F04FEA400B00BFE4
:10172000601C1AF800704FF6FF7000EA07271AF8DD
:10173000040007433846FFF7F7F9A41C5C45EFDBCC
:10174000BDE8F08F5CC70008D0CB0008C0D100080E
:101750005000002052000020540000201CDF000830
:1017600008B50121442000F075FF1C20ADF80000F1
:1017700048208DF803006946354800F0ABFA012097
:10178000ADF8000028208DF803006946314800F0CC
:10179000A1FA08BD10B5044614B101202E49087005
:1017A0002D480078002837D01021294800F025FB6B
:1017B00078B10821264800F020FB50B104212448CC
:1017C00000F01BFB28B10121224800F016FB012884
:1017D00022D10A2000F0B9F800201F49087010211A
:1017E0001B4800F00AFB08B9012010BD0821184869
:1017F00000F003FB08B90220F7E70421144800F0C9
:10180000FCFA08B90320F0E70121124800F0F5FACC
:1018100001281BD10420E8E710210D4800F0EDFA63
:10182000012813D108210A4800F0E7FA01280DD158
:101830000421074800F0E1FA012807D101210548F9
:1018400000F0DBFA10B90120034908700020CCE752
:1018500000180140000801405C00002008B56846FF
:1018600003F0EAF908BD08B5684603F02FFA08BD91
:1018700038B504466A460821204609F01BFD38BDEC
:1018800010B542480078012805D103F017F909F096
:101890009DFF03F024F910BD10B56FF0040000F0B7
:1018A0009AF93B4800683B49B0FBF1F03A490870AF
:1018B000374800683749B0FBF1F438480068C91070
:1018C000B1FBF0F04443354800684FF47A71B1FB46
:1018D000F0F0334908804FF0E020006940F002004A
:1018E0004FF0E021086108464461006940F00100C2
:1018F000086110BD2DE9F047074600264FF0E020B3
:10190000D0F814902448007807FB00F800BFFFF7D8
:10191000A5FF4FF0E020856911E04FF0E0208469D9
:10192000AC420CD0AC4202D2281B064403E0A9EB27
:101930000400284406442546464500D300E0ECE771
:1019400000BFFFF790FFBDE8F08770B504460F4871
:101950000078A0B11348007888B911480088844203
:1019600006DB0F48008894FBF0F52846FFF780FF60
:101970000B48008894FBF0F100FB114084B24FF457
:101980007A7104FB01F0FFF7B5FF70BDB1000020D4
:101990003C00002000127A005E0000203CE50008B8
:1019A00060000020B0000020014600BF704700BF6B
:1019B0004D4A128802F04002002AF9D0C2B24A4BC6
:1019C0001B1D1A80704710B586B00446012144F2F1
:1019D000040000F03FFE444800F0CAFA4FF40070E3
:1019E000ADF8140003208DF8160018208DF81700AC
:1019F00005A93E4800F06EF94FF48060ADF8140080
:101A000004208DF8170005A9384800F063F9252057
:101A10008DF8000003208DF801008DF802000120F0
:101A20008DF80300684600F08CF801940020ADF8B2
:101A30000800ADF80A00ADF80C00ADF810000C205D
:101A4000ADF80E0001A9284800F0D5FA012240F2B5
:101A50002551254800F067FB0121234800F057FB82
:101A600006B010BD10B503F029F840F225511E480C
:101A700000F03EFC10B31C4800F0BAFBC4B21C4896
:101A8000008800F40040C8B91948008800F480407C
:101A900060B10A2C03D000201549088020E01448CA
:101AA000008840F400401249088019E00D2C06D14E
:101AB0000F48008840F480400D49088010E00C4831
:101AC0000088C0F30D000B490C5409480088401CE5
:101AD0000749088008460088C72801DD00200880E3
:101AE00002F0FDFF10BD0000003801400008014079
:101AF0006800002056070020094880470948004731
:101B0000FEE7FEE7FEE7FEE7FEE7FEE7FEE7FEE7AD
:101B1000FEE7FEE704480549054A064B704700000A
:101B2000A70800083101000848280020483200209A
:101B3000482A0020482A002031490143314A1160D7
:101B4000704770B5002100230F22C47804B32D4CD8
:101B5000246804F4E064C4F5E064210AC1F10403DC
:101B6000CA40447804FA03F18478144021430901FF
:101B7000254C0678A155047804F01F050124AC40DB
:101B800005786D11AD0005F1E025C5F8004109E0CB
:101B9000047804F01F050124AC401C4D0678761132
:101BA00045F8264070BD1A4A0A400243154B1B1FD8
:101BB0001A60704739B1134A121D12680243114B63
:101BC0001B1D1A6006E00F4A121D126882430D4B5E
:101BD0001B1D1A607047042808D14FF0E0210969E5
:101BE00041F004014FF0E022116107E04FF0E021E5
:101BF000096921F004014FF0E022116170470000F3
:101C00000000FA050CED00E000E400E080E100E0F7
:101C100080FFFF1F10B50446CC48844208D1012143
:101C2000042000F031FD0021042000F02DFD46E0ED
:101C3000C748844208D10121082000F025FD002179
:101C4000082000F021FD3AE0C248844208D1012179
:101C5000102000F019FD0021102000F015FD2EE0ED
:101C6000BD48844208D10121202000F00DFD002153
:101C7000202000F009FD22E0B848844208D101216B
:101C8000402000F001FD0021402000F0FDFC16E0A6
:101C9000B348844208D10121802000F0F5FC0021E6
:101CA000802000F0F1FC0AE0AE48844207D1012117
:101CB000801500F0E9FC0021A01500F0E5FC10BD46
:101CC00010B50121084600F0DFFC0021012000F0E2
:101CD000DBFC10BD2DE9F041024600250026002066
:101CE00000230024002791F803C00CF00F0591F8A1
:101CF00003C00CF0100CBCF1000F03D091F802C02F
:101D00004CEA050591F800C0BCF1000F31D0146811
:101D100000202BE04FF0010C0CFA00F3B1F800C0EA
:101D20000CEA03069E4220D183004FF00F0C0CFA00
:101D300003F7BC4305FA03FC4CEA040491F803C022
:101D4000BCF1280F06D14FF0010C0CFA00FCC2F8D0
:101D500014C00AE091F803C0BCF1480F05D14FF060
:101D6000010C0CFA00FCC2F810C0401C0828D1D3AA
:101D70001460B1F800C0BCF1FF0F34DD54680020DE
:101D80002EE000F1080C4FF0010808FA0CF3B1F84E
:101D900000C00CEA03069E4221D183004FF00F0CD5
:101DA0000CFA03F7BC4305FA03FC4CEA040491F86F
:101DB00003C0BCF1280F05D100F1080C08FA0CF89B
:101DC000C2F8148091F803C0BCF1480F07D100F1AC
:101DD000080C4FF0010808FA0CF8C2F81080401CFB
:101DE0000828CED35460BDE8F0814FF6FF71018022
:101DF000022181700421C17070470246002093685F
:101E00000B400BB1012000E00020704701468868BC
:101E100080B2704702460020D3680B400BB101200E
:101E200000E0002070470146C86880B27047016139
:101E30007047416170470AB1016100E0416170473C
:101E4000C16070474FF480320A43826181618261D0
:101E500082698269704702460020434B18684FF63A
:101E60008073184040EA021008433F4B18607047E7
:101E70003E49C8617047F0B50A460023002400219E
:101E8000002500F00046B6F1004F02D1364EF16950
:101E900001E0354E7168C0F3034583B200F440168B
:101EA000B6F5401F08D121F070612F4E766826F0FC
:101EB00070662D4F7E6012E000F48016B6F5801F2C
:101EC00006D1032606FA05F4A14341F0706106E04D
:101ED000460D360103FA06F6B14341F0706122B1B6
:101EE000460D360103FA06F6314300F00046B6F11E
:101EF000004F02D11C4EF16101E01B4E7160F0BD3C
:101F000030B500228B071C0F0F2303FA04F2164B87
:101F100008338C1053F824309343134C08348D103D
:101F200044F8253023468C1053F824308C07240FB6
:101F300000FA04F423430C4C08348D1044F8253087
:101F400030BD0A49DC3108607047000000080140DC
:101F5000000C014000100140001401400018014035
:101F6000001C014000200140000001400000204210
:101F700010B50446FB48844209D10121880300F0D2
:101F800083FB00214FF4804000F07EFB32E0F648F6
:101F9000844209D10121480400F083FB00214FF461
:101FA000003000F07EFB25E0F048844209D1012199
:101FB000880400F076FB00214FF4802000F071FBD4
:101FC00018E0EB48844209D10121C80400F069FB04
:101FD00000214FF4002000F064FB0BE0E548844250
:101FE00008D10121080500F05CFB00214FF48010AE
:101FF00000F057FB10BD2DE9F04786B005460E46B0
:102000000024A24600BFA1460027B08900B100BF4E
:102010002F462C8A4CF6FF700440F08804432C8233
:10202000AC894EF6F3100440B088318908437189B9
:1020300008430443AC81AC8A4FF6FF400440B089AA
:102040000443AC8201A800F098FAC648874202D146
:10205000DDF810A001E0DDF80CA0A88900F4004034
:1020600040B10AEBCA0000EB0A1031684900B0FB2E
:10207000F1F807E00AEBCA0000EB0A1031688900AA
:10208000B0FBF1F86420B8FBF0F0040120096421F2
:1020900001FB1089A88900F4004040B1322000EB18
:1020A000C900B0FBF1F000F00700044308E0322063
:1020B00000EB09106421B0FBF1F000F00F000443C5
:1020C0002C8106B0BDE8F0874FF416510160002165
:1020D0008180C18001810C21418100218181704773
:1020E00010B502460020108A4FF2FF0318400B88FB
:1020F0004C8823438C882343CC8823431843108285
:1021000010BD0021018041808180C180704721B1D4
:10211000828942F40052828104E082894DF6FF7385
:102120001A4082817047F0B503460024002600253E
:10213000002040F66A17B94200D100BF1846C1F32B
:10214000421401F01F06012707FA06F5012C01D100
:102150000C3004E0022C01D1103000E014301AB130
:1021600007682F43076002E00768AF430760F0BDD0
:102170001AB1838A0B43838202E0838A8B43838272
:102180007047028A4FF6F0731A400282028A0A43AD
:102190000282704782894FF2FF731A4082818289DE
:1021A0000A438281704721B1828942F00202828112
:1021B00004E082894FF6FD731A4082817047028ADB
:1021C0004FF6DF731A400282028A0A430282704786
:1021D00021B1028A42F48042028204E0028A4BF674
:1021E000FF731A4002827047C1F308028280704771
:1021F00001468888C0F308007047818941F00101D9
:1022000081817047028BD2B20283028B42EA0122A3
:1022100002837047028B02F47F420283028B0A43DF
:102220000283704721B1828A42F02002828204E058
:10223000828A4FF6DF731A408282704721B1828A08
:1022400042F01002828204E0828A4FF6EF731A4055
:102250008282704721B1828A42F00802828204E0C1
:10226000828A4FF6F7731A408282704721B18289C1
:1022700042F40042828103E08289C2F30E0282812D
:10228000704721B1828A42F40062828204E0828A2D
:102290004FF2FF731A4082827047828A4FF6FB73B7
:1022A0001A408282828A0A438282704721B1828ADE
:1022B00042F00202828204E0828A4FF6FD731A40E5
:1022C0008282704702460020B1F5007F00D100BF36
:1022D00013880B400BB1012000E00020704701F48F
:1022E0000072B2F5007F00D100BFCA430280704780
:1022F00070B50246002400230025002040F66A162F
:10230000B14200D100BFC1F3421501F01F03012605
:1023100006FA03F3012D02D19689334006E0022D1F
:1023200002D1168A334001E0968A33400C1201260E
:1023300006FA04F41688344013B10CB1012000E011
:10234000002070BD10B50022002340F66A14A1429F
:1023500000D100BF0A1201249440A3B2DC430480E0
:1023600010BD00000038014000440040004800401B
:10237000004C004000500040DF48006840F0010081
:10238000DD49086008464068DC490840DA49486091
:1023900008460068DA490840D749086008460068DE
:1023A00020F4802008600846406820F4FE00486061
:1023B0004FF41F0088607047CF49096821F48031CD
:1023C000CD4A11601146096821F480211160B0F5F1
:1023D000803F03D0B0F5802F0ED106E0C6490968D2
:1023E00041F48031C44A116007E0C349096841F4EF
:1023F000A021C14A116000E000BF00BF704710B5C6
:1024000001460022002300204A11012A02D1BA4CC1
:10241000236806E0022A02D1B74C236A01E0B64CD9
:10242000636A01F01F02012494401C400CB101209A
:1024300000E0002010BD38B50020009000240025E9
:1024400000BF3120FFF7DBFF05460098401C0090DD
:102450000098B0F5A06F01D0002DF2D03120FFF729
:10246000CEFF08B1012400E00024204638BD01461B
:102470000020A14A106820F0F80040EAC100106076
:102480007047A04908607047024600209A4B586880
:1024900020F47C1042EA01031843974B58607047C0
:1024A00098490866704701460020934A506820F01A
:1024B00003000843506070478F48406800F00C00EC
:1024C0007047014600208C4A506820F0F000084315
:1024D0005060704701460020874A506820F4E06051
:1024E00008435060704701460020834A506820F43A
:1024F000605040EAC1005060704729B17E4A527A6C
:1025000002437D4B5A7204E07B4A527A82437A4BF3
:102510005A7270477B49D8310860704701460020E5
:10252000754A506820F440400843506070470021CD
:10253000714A20321170704A82F82010012802D0AE
:1025400004280AD104E001216B4A2032117005E011
:102550000521694A2032117000E000BF00BF7047BA
:102560006949086070476449096A0143624A116217
:102570007047654944390860704730B50021002232
:10258000002400235C4D6D6805F00C0121B1042985
:1025900005D0082923D105E05C4D056022E05B4DA4
:1025A00005601FE0544D6D6805F47012524D6D6862
:1025B00005F48034022505EB92421CB9544D554375
:1025C00005600BE04C4D6D6805F400351DB1504DB4
:1025D0005543056002E04D4D5543056002E04B4D0B
:1025E000056000BF00BF444D6D6805F0F0010909AA
:1025F000484D6B5C0568DD4045603F4D6D6805F4F6
:10260000E061090A434D6B5C4568DD4085603A4DE9
:102610006D6805F46051C90A3E4D6B5C4568DD404C
:10262000C560354D6D6805F44041890B3A4D6B5CD2
:10263000C568B5FBF3F5056130BD29B12E4A526975
:1026400002432D4B5A6104E02B4A526982432A4BC4
:102650005A61704729B1284A92690243264B9A6110
:1026600004E0254A92698243234B9A61704729B15D
:10267000214AD2690243204BDA6104E01E4AD26942
:1026800082431D4BDA61704729B11B4AD26802436D
:10269000194BDA6004E0184AD2688243164BDA60BC
:1026A000704729B1144A12690243134B1A6104E0BE
:1026B000114A12698243104B1A617047124940391E
:1026C000086070470F49C86470470B49C87170476C
:1026D0000948406A40F080700749486270470146E7
:1026E0000020054A92680A400AB1012000E000205B
:1026F0007047014988727047001002400000FFF8DF
:10270000FFFFF6FE000042428004424200127A00BF
:1027100000093D006A0000207A00002030B943F231
:10272000DB028100A1F1C0410A6005E043F2D20260
:102730008100A1F1C0410A606FF07042411C890024
:10274000A1F1C0410A608100A1F1C041C1F804219A
:10275000704710280AD118214FF0204211664021FD
:1027600051664FF0FC319166D16610E01821F74AAE
:10277000116040214FF02042C2F884104FF0FC312C
:10278000F24A083211604FF02042C2F88C107047B4
:102790001820EE492031086000200906C1F8A40085
:1027A0004FF0FC30E94928310860091D0860091D17
:1027B00008607047D0E901121143C26811430269F1
:1027C00011434269114382691143C2691143026A8C
:1027D0001143426A1143826A1143C26A1143026B78
:1027E000114302689200A2F1C04211608168082979
:1027F0000BD101688900A1F1C041096841F0400294
:1028000001688900A1F1C0410A60416B0968426B0F
:10281000526841EA0211426B926841EA0221426B1E
:10282000928941EA0241426B128A41EA0251426BAB
:10283000127D41EA0261426B926911430268521CA7
:102840009200A2F1C0421160C16AB1F5804F1BD164
:10285000816B0968826B526841EA0211826B92684F
:1028600041EA0221826B128A41EA0251826B127D97
:1028700041EA0261826B9269114302689200A2F1FF
:10288000C042C2F8041107E06FF07042016889008D
:10289000A1F1C041C1F80421704730B500210022E8
:1028A0000023446844F0080485682C43C5682C4321
:1028B00005692C43456944EA4524856944EA453164
:1028C000C4692468C5696D6844EA0524C5692D8911
:1028D00044EA0544C5692D7B44EA0562046A24681C
:1028E000056A6D6844EA0524056A2D8944EA0544B1
:1028F000056A2D7B44EA05630468102C05D14FF06E
:1029000020442166A266E36608E0904C21604FF007
:102910002044C4F888208D4C0C34236030BD0168FD
:1029200041F01001426841EA4221826841EA4231A5
:10293000864A20321160C1680968C268526841EA5B
:102940000221C268128941EA0241C268127B41EA4F
:1029500002617E4A28321160016909680269526881
:1029600041EA02210269128941EA02410269127BAD
:1029700041EA0261754A2C32116041690968426975
:10298000526841EA02214269128941EA02414269E0
:10299000127B41EA02614FF02042C2F8B01070474A
:1029A000002101600221416000218160C16001615C
:1029B00041618161C16101624FF48051416249000E
:1029C00081620021C16201630F21426B1160426B81
:1029D0005160FF21426B91600F21426BD160426BCD
:1029E0001161426B51610021426B91610F21826B39
:1029F0001160826B5160FF21826B91600F21826BAD
:102A0000D160826B1161826B51610021826B916197
:102A1000704710210160002141608160C160016147
:102A200041618161FC21C2691160C2695160C26962
:102A30009160C269D160026A1160026A5160026AE3
:102A40009160026AD160704700210160416081603D
:102A5000FC21C2681160C2685160C2689160C2689E
:102A6000D160026911600269516002699160026976
:102A7000D160426911604269516042699160426966
:102A8000D160704751B18200A2F1C042126842F099
:102A900001038200A2F1C042136009E08200A2F1AA
:102AA000C04212682A4B1A408300A3F1C0431A6047
:102AB000704799B1102808D14FF02042126E42F0B1
:102AC00004024FF020431A661DE0204A126842F0CB
:102AD00004024FF02043C3F8802014E0102809D1ED
:102AE0004FF02042126E1A4BDB1E1A404FF020436B
:102AF0001A6608E0154A1268154BDB1E1A404FF0A3
:102B00002043C3F88020704748B11049203109683C
:102B100041F004014FF02042C2F8A01009E00B4937
:102B2000203109680A4AD21E11404FF02042C2F8F3
:102B3000A0107047B9B110280CD14FF02042126E8E
:102B400042F040024FF020431A661FE0800000A0D0
:102B5000FEFF0F00724A126842F040024FF020431D
:102B6000C3F8802012E0102808D14FF02042126EE6
:102B70006C4B1A404FF020431A6607E0684A12680F
:102B8000684B1A404FF02043C3F88020704701463D
:102B90000020102903D14FF02042506F02E0604A1C
:102BA00014321068704710B5F2B1102807D14FF0F9
:102BB00020435B6E0B434FF02044636632E0B0F578
:102BC000807F08D1564B1B1D1B680B434FF02044E0
:102BD000C4F8843026E0524B24331B680B434FF07B
:102BE0002044C4F8A4301DE0102807D14FF0204342
:102BF0005B6E8B434FF02044636613E0B0F5807F3B
:102C000008D1474B1B1D1B688B434FF02044C4F871
:102C1000843007E0424B24331B688B434FF0204441
:102C2000C4F8A43010BD10B5024600200023102ABD
:102C300003D14FF02044636E09E0B2F5807F03D1E9
:102C4000374C241D236802E0354C2434236803EA02
:102C500001040CB1012000E0002010BD102807D1B4
:102C60004FF02042526E8A434FF020435A6613E0E1
:102C7000B0F5807F08D12A4A121D12688A434FF0AE
:102C80002043C3F8842007E0254A243212688A438F
:102C90004FF02043C3F8A420704770B502460020CF
:102CA000002300240025102A03D14FF02046736E24
:102CB00009E0B2F5807F03D1194E361D336802E07A
:102CC000174E2436336803EA010403EAD10514B130
:102CD0000DB1012000E0002070BD102808D14FF098
:102CE0002042526E22EAD1024FF020435A6615E08C
:102CF000B0F5807F09D10A4A121D126822EAD1027A
:102D00004FF02043C3F8842008E0054A24321268BB
:102D100022EAD1024FF02043C3F8A42070470000FC
:102D2000800000A0BFFF0F0000B585B06846FFF728
:102D300024FC019805B000BD10B5FFF7F5FF04466F
:102D40001748006840F08070154908600020154958
:102D500048600846006840F001000860204600F026
:102D6000B6F810BD0F49486870472DE9F047824614
:102D7000FFF7DAFF4FF0000980460B4A0023404678
:102D8000494609F08CFA064632460B465046002169
:102D900009F085FA04460D4620462946BDE8F0872D
:102DA000FCED00E0001000E040420F0010B50024F0
:102DB00000BF00BF00F052F9044600BF00BF102161
:102DC000A14800F0D2FA00BF00BF204600F04AF947
:102DD00000BF00BF10BD10B5FFF7E8FF10BD10B574
:102DE00000209A490860FFF7A7FF10BD10B5FFF754
:102DF000F6FFFFF7F0FF10BD00BFFEE770B5054618
:102E00000C46002614B900BFFFF7F6FF15B90A20DB
:102E1000208070BD00BF00BF00F020F9064600BF53
:102E200000BF10228849284600F056FF00BF00BFAF
:102E3000304600F017F900BF00BF0020208000BF1F
:102E4000E7E72DE9F04105460C46002714B900BF1D
:102E5000FFF7D2FF1DB90A202080BDE8F0811021C4
:102E6000284600F021FF0646102E15D200BF00BFF5
:102E700000F0F4F8074600BF00BF10222946724850
:102E800000F02AFF00BF00BF384600F0EBF800BF9B
:102E900000BF0020208002E04FF47A70208000BF45
:102EA000DBE710B5FFF75EFF0446204610BD704714
:102EB00000B5014611B900BFFFF79EFF634A1068D5
:102EC00008B1002201E04FF4FA620A8000BD5F49B8
:102ED0000860704770B50546284600F0CAF80446F9
:102EE000183C204670BD70B50546284600F0C1F874
:102EF0000446103C204670BD70B50546284600F0DB
:102F0000B8F8044600BF204670BD30B502460B46F7
:102F10000024D2F1FF359C4126D24FF6FF74D2F146
:102F2000FF359C410FD26FF07F44D2F1FF359C41B9
:102F300003D2190E464C605C44E0190C444C645CAE
:102F400004F108003EE0FF24D2F1FF359C4105D298
:102F5000190A3F4C645C04F1100033E019463C4C04
:102F6000645C04F118002DE04FF6FF750024AD1AE3
:102F70009C4115D26FF07F450024AD1A9C4107D2C9
:102F8000140E44EA0321324C645C04F1200019E081
:102F9000140C44EA03412E4C645C04F1280011E057
:102FA0000024D2F1FF059C4107D2140A44EA0361D0
:102FB000274C645C04F1300004E01146244C645C4E
:102FC00004F1380030BD70B504460CB9082070BD5E
:102FD000204600F051F805462846F8E770B504464B
:102FE0000CB9102070BD204600F046F80546284672
:102FF000F8E770B504460CB9202070BD204600F0FB
:103000003BF805462846F8E72DE9F04304460D460F
:10301000002184EA01006940084302D14020BDE854
:10302000F083E243E843521C40F1000102EA040647
:1030300001EA050730463946FFF767FF8046C8F1C9
:103040003F094846EBE700001E08002080000020F2
:1030500044E3000872B6704762B67047EFF3108021
:1030600072B6704780F31088704730BF704720BF3A
:103070007047B0FA80F0704790FAA0F0B0FA80F094
:10308000704790FAA0F070470146412903DB5A29A6
:1030900001DC012200E00022012A08D0612903DBC3
:1030A0007A2901DC012200E00022012A01D101225B
:1030B00000E00022104670470146412903DB5A29EF
:1030C00001DC012200E00022012A08D0612903DB93
:1030D0007A2901DC012200E00022012A01D101222B
:1030E00000E00022012A08D0302903DB392901DC65
:1030F000012200E00022012A01D1012200E0002289
:10310000104670470146612903DB7A2901DC012260
:1031100000E00022104670470146412903DB5A298E
:1031200001DC012200E000221046704701463029F0
:1031300003DB392901DC012200E000221046704740
:103140000146302903DB372901DC012200E000229F
:10315000104670470146302901DB392907DD412936
:1031600001DB462903DD612903DB662901DC01223D
:1031700000E00022104670470146202901D00929AD
:1031800001D1012200E000221046704701462029AB
:1031900009D00D2907D00A2905D00C2903D0092907
:1031A00001D00B2901D1012200E000221046704716
:1031B0000146202903DB7E2901DC012200E00022F8
:1031C000104670470146212903DB7E2901DC0122DC
:1031D00000E00022104670470146202903DB7E29CB
:1031E00001DC012200E00022012A35D1202909D08A
:1031F0000D2907D00A2905D00C2903D0092901D0AF
:103200000B2901D1012200E000222ABB412903DB66
:103210005A2901DC012200E00022012A08D061299C
:1032200003DB7A2901DC012200E00022012A01D11E
:10323000012200E00022012A08D0302903DB3929CD
:1032400001DC012200E00022012A01D1012200E07C
:1032500000220AB9012200E0002210467047014610
:103260004AB2002A01DB1F2901DD7F2901D1012299
:1032700000E00022104670470146412903DB5A292D
:1032800001DC012200E00022012A02D101F120022A
:1032900000E00A46D0B270470146612903DB7A2973
:1032A00001DC012200E00022012A02D1A1F120026A
:1032B00000E00A46D0B27047F0B504460B462046FF
:1032C000FFF7EAFF05461846FFF7E6FF0646B54258
:1032D00001D1012000E0002007463846F0BD000083
:1032E000FC48FD4901600146416000218160C160E8
:1032F000016141618161C16101620163C162416239
:10330000F6498163C1634FF4806101644164014601
:10331000F34A116070472DE9F04105460B4694468B
:103320000027002402E03F021F43641C042CFAD350
:10333000604605F00306294646B1344603E001F82D
:10334000013B401E641C08B1042CF8D30A4601E07E
:1033500080C2001F0428FBD2114602E001F8013BA5
:10336000401E0028FAD1BDE8F08130B505460C4674
:10337000224600212846FFF7CEFF30BD2DE9F04F51
:1033800085B007468846914646463D46AE4207D937
:103390004A464146384601F01DF905B0BDE8F08FB8
:1033A0004C4607EB0900451E08EB0900461EA81B0A
:1033B00004900498042834D305F00300029006F02A
:1033C00003010191DDE90110884201D1012000E0F3
:1033D000002000900098012823D10298032810D0E3
:1033E000029840B2039008E016F8010905F80109B7
:1033F000641E0398401E40B2039014B10398002845
:10340000F2DAA5F1030AA6F1030B04E05BF8040964
:103410004AF80409241F042CF8D20AF103050BF121
:10342000030604E016F8010905F80109641E002CE2
:10343000F8D100BFB1E72DE9F84F8046894615461F
:1034400015B90120BDE8F88FB8F1000F01D10020B7
:10345000F8E7B9F1000F01D10020F3E70124294674
:1034600008EB050209EB050302F0030C03F0030B64
:10347000DC4501D1012000E00020009000980128E7
:1034800029D1BCF1000F12D0E2460AE0521E5B1EA9
:10349000107893F800E0704500D00024491EAAF18E
:1034A000010A012C03D111B1BAF1000FEED1012CA8
:1034B00011D116461F4608E0361F3F1F3068D7F867
:1034C00000E0704500D00024091F012C01D104291F
:1034D000F2D232463B4608E0521E5B1E107893F84B
:1034E00000E0704500D00024491E012C01D10029C4
:1034F000F2D12046A6E7F0B503460E461546D96B35
:10350000B1FBF5F005FB101CBCF1000F02D0A5EBE0
:103510000C0200E000229419586CA04201D2002055
:10352000F0BD0F191144DF63586C001B5864084646
:10353000F6E72DE9F04106460F46B6FBF3FC03FB28
:103540001C6109B15C1A00E00024B2FBF3FC03FB30
:103550001C2109B15D1A00E0002502EB0508A7F166
:10356000010C08FB0C4C0CEB0200BDE8F0812DE9CE
:10357000FE4F8046894614461E46002000900CB936
:1035800001AC00BF00202060524F00BF00BFFFF71A
:1035900065FD009000BF00BFF86B0290D7F844B003
:1035A0004B46424601210298FFF7C3FF05465D45A1
:1035B0000FD900BF00BF0098FFF754FD00BF00BF48
:1035C000A5EB0B00206042F2E27030800020BDE8E5
:1035D000FE8F4A4641463846FFF78DFF8246BAF1D4
:1035E000000F0CD100BF00BF0098FFF73BFD00BFEC
:1035F00000BF256042F2E27030800020E7E700BFA4
:1036000000BF0098FFF72EFD00BF00BF42F2107010
:1036100030805046DBE72DE9FC5F07460C469046BC
:103620000020009000BF00BFFFF718FD009000BF12
:1036300000BFD7F80490D9F8380008B1484600E038
:1036400024488246DAF84450DAF83CB000BF00BFA4
:103650000098FFF707FD00BF00BF012C0AD9BBFB94
:10366000F4F004FB10B60EB1A01B00E000200190A6
:1036700001982D1A42F21070A8F800002846BDE803
:10368000FC9F70B504460D462A4621461148FFF7B7
:10369000C2FF0646304670BD18B942F211720A8068
:1036A0007047104A0260002242608260C26002617C
:1036B00042618261C2610262826242630263C262EB
:1036C00042628263C2630264426442F210720A8000
:1036D00000BFE5E730080020484541507808002049
:1036E000840000204E4F4E452DE9FF4F91B0044617
:1036F000DDE9208900200090B8F1000F02D10DF122
:10370000180800BF0020C8F8000049462046FFF70F
:10371000C3FFB9F8000042F21071884202D015B020
:10372000BDE8F08FFE48006820B942F2E770A9F8C2
:103730000000F4E7DFF8ECA30020059000BF00BF15
:10374000FFF78CFC009000BF00BF129880BB55466D
:10375000AB462E46DAF83C000D9004231A46149925
:103760000D98FFF7E6FE049004990D9808440C901C
:10377000DDE91E2314990C98FFF7DBFE0390DDE9C9
:10378000030108440590DAF844700598B8427DD9E1
:1037900000BF00BF0098FFF765FC00BF00BF0598A1
:1037A000C01BC8F8000042F2E270A9F80000B6E7BA
:1037B000FFE712980B90DDE912010844401E0A90C1
:1037C0000025AB46D64806683BE0B16B12988142B3
:1037D00005D1316C1398814201D1354633E0B06B8D
:1037E0000990316CB06B0844401E0890DDE9090176
:1037F000814200D227E009990B98884203D8DDE97D
:10380000091088420FD209990B98884203D308996E
:103810000A98884207D908990B9888420FD80899C6
:103820000A9888420BD300BF00BF0098FFF71AFC2C
:1038300000BF00BF42F27F70A9F800006FE7B346F7
:10384000F668002EC1D100BF45B925461298A06385
:103850001298E0631398206413986064DAF83C00CF
:103860000D9004231A4614990D98FFF762FE0490F8
:10387000DAF844700498B84211D900BF00BF00982C
:10388000FFF7F0FB00BF00BF049800E024E0C01B7E
:10389000C8F8000042F2E270A9F800003FE7E86BC8
:1038A0000C90DDE91E2314990C98FFF742FE03905B
:1038B0006F6C0398B8420FD900BF00BF0098FFF7A4
:1038C000D1FB00BF00BF0398C01BC8F8000042F244
:1038D000D870A9F8000022E7149880000290042212
:1038E00050460299FFF707FE0F900F9830BBDAF8A9
:1038F000447000BF00BF0098FFF7B4FB00BF00BFDB
:10390000129858B90598B84204D90598C01BC8F850
:1039100000000EE00598C8F800000AE00298B842DE
:1039200004D90298C01BC8F8000002E00298C8F849
:10393000000042F2E270A9F80000F0E600200190D9
:1039400034E02846DDE91E12FFF7D5FD0E900E98F3
:1039500020BBE86B0C906F6C00BF00BF0098FFF7B6
:1039600081FB00BF00BF01991498401A0790DDE960
:103970001E2307990C98FFF7DCFD05900598B842C7
:1039800004D90598C01BC8F8000002E00598C8F8E3
:10399000000042F2D870A9F80000C0E6019ADDE903
:1039A0000E0141F822000198401C019014990198E1
:1039B0008842C6D3A5420DD1C4F808B0E660BBF179
:1039C000000F02D0CBF80C4001E0554804605EB116
:1039D000B46009E0686910902561109860616C61BD
:1039E000109808B1109804614F48206065600C98E9
:1039F000A06103990C980844401EE0610F98206272
:103A00000398A0621F9860631E9820631498E06278
:103A10001498606200BF00BF0098FFF723FB00BF4F
:103A200000BF42F21070A9F8000000BF77E62DE950
:103A3000F04104460D46002700BF00BFFFF70EFB14
:103A4000074600BF00BF666A00BF00BF3846FFF7E9
:103A500009FB00BF00BF42F2107028803046BDE86D
:103A6000F0812DE9F041044688461546002700BF45
:103A700000BFFFF7F3FA074600BF00BF606A60B9F6
:103A800000BF00BF3846FFF7EDFA00BF00BF42F2AB
:103A9000DE7028800020BDE8F081E16A606A88421B
:103AA0000BD900BF00BF3846FFF7DCFA00BF00BFEC
:103AB00042F2957028800020EDE7606A401E606247
:103AC000D4E9080150F8216000BF00BF3846FFF775
:103AD000C9FA00BF00BF42F2107028803046DAE712
:103AE0002DE9F04704460F4615464FF0000900BF88
:103AF00000BFFFF7B3FA814600BF00BFE06AC01BFA
:103B0000461EE06AB04213D800BF00BF4846FFF728
:103B1000A9FA00BF00BF42F295702880002005E09E
:103B20008400002030080020504F4F4CBDE8F08743
:103B3000606AB0420BD900BF00BF4846FFF792FA57
:103B400000BF00BF42F2957028800020E7E7206A9E
:103B500050F8268000BF00BF4846FFF783FA00BF39
:103B600000BF42F2107028804046D8E72DE9F047A8
:103B700004460E4617464FF0000A00BF00BFFFF78D
:103B80006DFA824600BF00BFE16A606A88420BD3CB
:103B900000BF00BF5046FFF765FA00BF00BF42F20A
:103BA000DD703880BDE8F0874FF00008656A08E0F6
:103BB000206A50F82590B14502D14FF0010803E08A
:103BC0006D1CE06AA842F3D800BFB8F1010F06D11E
:103BD000D4E9080150F82100216A41F82500D4E910
:103BE000080140F82160606A401C606200BF00BFAD
:103BF0005046FFF737FA00BF00BF42F2107038801E
:103C000000BFCFE72DE9F84F04460F4616460020C7
:103C100000904FF0FF3B00BF00BFFFF71FFA00907E
:103C200000BF00BFE16A606A88420CD300BF00BFDA
:103C30000098FFF717FA00BF00BF42F2DD70308036
:103C40005846BDE8F88F4FF00009656A08E0206A21
:103C500050F82580B84502D14FF0010903E06D1CF2
:103C6000E06AA842F3D800BFB9F1010F0FD1E06AB2
:103C7000401EA0EB050A00BF00BF0098FFF7F2F955
:103C800000BF00BF42F2107030805046D9E700BF3D
:103C900000BF0098FFF7E6F900BF00BF42F288704E
:103CA00030805846CDE7000010B502460B4611465D
:103CB000002001E0491C401C19B10C780CB198425D
:103CC000F8D310BD30B504464FF0FF312046FFF762
:103CD000EBFF0546284630BD70B504460D46164636
:103CE0000CB9002070BD0DB90020FBE721462A4623
:103CF000002304E010780870491C521C5B1C21B1A1
:103D00001AB1107808B1B342F4D301B10AB9002056
:103D1000E8E7B34201D2002008702046E2E770B520
:103D200004460D464FF0FF3229462046FFF7D4FFE8
:103D30000646304670BD70B503460C4615460BB9B5
:103D4000002070BD0CB90020FBE70DB91846F8E75C
:103D5000194600E0491C11B108780028FAD109B9C8
:103D60000020EEE72246002604E010780870491C87
:103D7000521C761C21B11AB1107808B1AE42F4D3AE
:103D800001B10AB90020DCE7002008701846D8E726
:103D900070B504460D464FF0FF3229462046FFF726
:103DA000CAFF0646304670BD2DE9F04305460B4676
:103DB0009446BCF1000F02D10020BDE8F08335B974
:103DC0000BB90020F9E7187842421046F5E713B91D
:103DD0002A781046F1E729461C460F4626467F1CE6
:103DE000761C4FF0000805E0491C641C7F1C761C03
:103DF00008F10108087894F80090484505D1087842
:103E000018B117B10EB1E045EED3E04501D1002065
:103E1000D3E7087894F80090484505D0087894F8DE
:103E20000090A0EB09020BE0087808B9002207E037
:103E30002FB90EB9002203E03078424200E03A7810
:103E40001046BAE770B504460D464FF0FF322946DA
:103E50002046FFF7A9FF0646304670BD2DE9F74F13
:103E600082B080460E46049818B9002005B0BDE81F
:103E7000F08FB8F1000F09D10EB90020F6E73078C5
:103E8000FFF7FAF907467C422046EFE73EB998F87B
:103E90000000FFF7F1F905462C462046E6E7C1464B
:103EA000B246C846C3465646CDF804A0D8460BF1E4
:103EB000010B019E701C0190C84699F80000FFF7A5
:103EC000DBF9054656469AF80000FFF7D5F9074694
:103ED0000020009015E009F101090AF1010A0BF137
:103EE000010B0198401C01900098401C009099F82B
:103EF0000000FFF7C1F905469AF80000FFF7BCF98A
:103F00000746BD420BD199F8000040B1BBF1000F4C
:103F100005D0019818B1049900988842DBD3049920
:103F20000098884201D10020A0E7BD4201D0EC1BDF
:103F300016E00DB9002413E0BBF1000F0AD101987F
:103F400008B900240CE001990878FFF795F90746B5
:103F50007C4205E09BF80000FFF78EF905462C46F1
:103F6000204683E770B504460D464FF0FF322946E0
:103F70002046FFF773FF0646304670BD30B5044655
:103F80000B4615460CB9002030BD0BB90020FBE7ED
:103F90002146002201E0491C521C31B1087820B1B1
:103FA0000878A84201D09A42F5D309B90020EBE77E
:103FB0009A4201D30020E7E70878A84201D0002008
:103FC000E2E70846E0E770B505460C4622464FF0AA
:103FD000FF312846FFF7D2FF0646304670BD2DE977
:103FE000F04305460E46174615B90020BDE8F0839C
:103FF0000EB90020FAE72C46A6F1010949462046F1
:10400000FFF752FE804644440CB90020EEE700E082
:10401000641EAC4202D02078B842F9D12078B84270
:1040200001D00020E2E72046E0E770B505460C46E7
:1040300022464FF0FF312846FFF7D1FF06463046B3
:1040400070BD70B504460D4616460CB9002070BD13
:104050000BB90020FBE721461A4605E00878A84284
:1040600000D10E70491C521E19B1087808B1002AFF
:10407000F4D12046EBE7F0B504460D4616464FF066
:10408000FF33324629462046FFF7DBFF0746384616
:10409000F0BD2DE9FF4F06460F4615461EB900201C
:1040A00004B0BDE8F08F0FB90020F9E70DB900208A
:1040B000F6E7681C00B101E04FF0FF30039029469D
:1040C0003046FFF7F1FD804638460399FFF7ECFDD7
:1040D00004460CB93046E3E7444501D90020DFE748
:1040E00006EB080BBBF1000F01D10020D8E707EB6E
:1040F000040BBBF1000F01D10020D1E7A8EB0400B5
:1041000002904FF000090020019000BF06EB09006B
:104110000090224639460098FFF746FE8246BAF1E3
:10412000000F01D1012000E00020019009F10109F8
:10413000019810B902988145E8D9BAF1000F01D071
:104140000020ADE70098ABE770B504460D464FF090
:10415000FF3229462046FFF79CFF0646304670BDD9
:104160002DE9FF4F8DB00F4615461A9E1D9818B9C0
:10417000002011B0BDE8F08F002003900490012FC3
:1041800001DA01200390022D01D3242D01D9012051
:10419000039096B33046FFF70BF80290029801287F
:1041A00002D00120039028E0302E26D0A6F1300066
:1041B000C0B207901B98012804D0A6F14100C0B2FC
:1041C000069003E0A6F16100C0B206900A2D02D865
:1041D0000798A84209DB0A2D09D907980A2804D3B1
:1041E000A5F10A000699884201D9012000E00020CB
:1041F00005900598012800D103901D9C0398002884
:1042000046D1DDF834A0DDF834A0CDF830A001208F
:104210000B9007E00B98401CC0B20B900C98B0FBC1
:10422000F5F00C900C98A842F4D21098012800D117
:1042300000E0002009900B9909980844B84225DC59
:10424000002001900B98B84201DA0B9800E0384644
:104250000A903EB1B8460A98391A0998081AC0B2AD
:10426000089006E0DDE90910084400F0FF0800208E
:1042700008900898002806DD302E01D1012000E0CA
:104280000020049004E00020049001E0012003904D
:10429000039800B1B84644441C9808B1002020702F
:1042A000641E4FF0000941E00398A8BBBAF1000F6B
:1042B00002D1B9F1000F1CD1BAFBF5F005FB10A03B
:1042C00000F0FF0BBBF10A0F04D20BF1300004F831
:1042D00001090BE01B98012804D00BF1370004F80A
:1042E000010903E00BF1570004F80109BAFBF5FAE4
:1042F0001AE01098012810D1049808B9019828B143
:10430000049850B1A8F10100484506D12D2004F8C9
:1043100001090120019007E003E02EB104F80169D2
:1043200002E03F2004F8010909F10109C145BBD3AE
:10433000039808B100201CE71D981AE72DE9FF5FDC
:1043400005460E4617461C46DDE90F9ADDF8388013
:1043500000233A46314628468DE81007FFF700FF54
:104360008346584604B0BDE8F09F2DE9FF4F85B065
:10437000044689461F46DDE913AB002C02DA65428C
:10438000012601E02546002612983346CDE902AB0E
:10439000CDE9007049462846079AFFF7E1FE8046BE
:1043A000404609B0BDE8F08F2DE9FF4F8BB00646BF
:1043B00089461546B9F1000F02D10DF1240900BF5D
:1043C000C9F80060189810B907A8189000BF00211C
:1043D000189801701EB900200FB0BDE8F08F012DB4
:1043E00001D0242D01D90020F6E734462078FEF7CD
:1043F000CDFE039004E0641C2078FEF7C7FE039016
:1044000003980128F7D020782B2802D02D280BD133
:1044100003E0641C4FF0000B09E00E98012800D166
:10442000641C4FF0010B02E04FF0000B00BF00BF17
:104430000A9425B1082D1CD0102D36D11EE020780D
:10444000302814D1641C2078582802D078280BD149
:1044500000BF102567783846FEF77CFE8246BAF129
:10446000010F00D1641C01E0082500BF00E00A250F
:104470001CE02078302800D1641C17E02078302818
:1044800012D1641C2078582802D078280AD100BFA5
:1044900067783846FEF75EFE8246BAF1010F00D11A
:1044A000641C00E000BF00BF00E000BF00BF4FF091
:1044B000000800200290019040E027783846FEF77F
:1044C000FBFD05900598012836D13846FEF72EFEF3
:1044D00006900698012804D1A7F13000C0B20890D8
:1044E0000FE03846FEF70EFE04900498012804D130
:1044F000A7F15700C0B2089003E0A7F13700C0B29F
:1045000008900898A84214DA029880B9304850F808
:104510002500404509D308FB05F808988044089811
:10452000804504D20120029001E001200290641C29
:1045300004E00120019001E0012001900198002891
:10454000BBD00298012801D14FF0FF380A9884426D
:1045500002D0C9F8004001E0C9F80060189880F85E
:1045600000B0404638E7F8B504460D461646002030
:1045700003463246294600902046FFF715FF0746BE
:104580003846F8BD2DE9FC4105460E46174601A800
:1045900001233A46314600902846FFF705FF0446BE
:1045A0009DF8040040B9B4F1004F02D36FF0004011
:1045B00000E02046804607E0B4F1004F02D34FF000
:1045C000004000E0604280464046BDE8FC810000BB
:1045D00048E40008002800D17047002900D1704746
:1045E000002A00D170472DE9F81F00F0030301F005
:1045F0000304A34211D1C3F1040303F00303012B0D
:104600001DD3012A00D2F2E011F8014B00F8014B52
:10461000A3F10103A2F10102F1E700F0010301F0AF
:104620000104A34200D094E0012B44D311F8014BC4
:1046300000F8014BA3F10103A2F10102F4E7B2F586
:10464000B47F26D3B1E8F81FA0E8F81FB1E8F81F3F
:10465000A0E8F81FB1E8F81FA0E8F81FB1E8F81FBC
:10466000A0E8F81FB1E8F81FA0E8F81FB1E8F81FAC
:10467000A0E8F81FB1E8F81FA0E8F81FB1E8F81F9C
:10468000A0E8F81FB1E8F81FA0E8F81FA2F5B4727F
:10469000D5E7282A06D3B1E8F81FA0E8F81FA2F151
:1046A0002802F6E7042A06D351F8043B40F8043BFD
:1046B000A2F10402F6E7202A42D331F8023B20F8A7
:1046C000023B31F8023B20F8023B31F8023B20F874
:1046D000023B31F8023B20F8023B31F8023B20F864
:1046E000023B31F8023B20F8023B31F8023B20F854
:1046F000023B31F8023B20F8023B31F8023B20F844
:10470000023B31F8023B20F8023B31F8023B20F833
:10471000023B31F8023B20F8023B31F8023B20F823
:10472000023B31F8023B20F8023B31F8023B20F813
:10473000023B31F8023B20F8023BA2F12002BAE72B
:10474000022A06D331F8023B20F8023BA2F1020212
:10475000F6E7102A42D311F8013B00F8013B11F8AB
:10476000013B00F8013B11F8013B00F8013B11F857
:10477000013B00F8013B11F8013B00F8013B11F847
:10478000013B00F8013B11F8013B00F8013B11F837
:10479000013B00F8013B11F8013B00F8013B11F827
:1047A000013B00F8013B11F8013B00F8013B11F817
:1047B000013B00F8013B11F8013B00F8013B11F807
:1047C000013B00F8013B11F8013B00F8013B11F8F7
:1047D000013B00F8013BA2F11002BAE7012A06D31F
:1047E00011F8013B00F8013BA2F10102F6E7BDE838
:1047F000F81F7047154816481648174817481848B4
:104800001848194819481A481A481B481B481C4898
:104810001C481D481D481E481E481F481F48204868
:104820002048214821482248224823482348244838
:104830002448254825482648264827482748284808
:1048400028482948294800BF704700007CE5000837
:10485000DCE40008E0E40008E4E40008E8E4000820
:10486000ECE40008F0E40008F4E40008F8E40008D0
:10487000FCE4000800E5000804E5000808E500087D
:104880000CE5000810E5000814E5000818E500082C
:104890001CE5000820E5000824E5000828E50008DC
:1048A0002CE5000830E5000834E5000838E500088C
:1048B0003CE5000840E5000844E5000848E500083C
:1048C0004CE5000850E5000854E5000858E50008EC
:1048D0005CE5000860E5000864E5000868E500089C
:1048E0006CE5000870E5000874E5000878E500084C
:1048F000002400BF19E000BF00BFFEF7AFFB044675
:1049000000BF00BFF7480068401CF6490860F64841
:104910000068401CF449086000BF00BF2046FEF755
:10492000A1FB00BF00BF07F083FBE4E710B58AB02E
:1049300004460020EB4908600B2000210591CDE9D9
:10494000070406910846E9490968E94A1268E94BF3
:104950001B68CDE90132CDE903103F200023AFF2FF
:104960006F02E5A10090E94804F08EFD0AB010BD89
:1049700000210AE001EB4102E54B03EB820000223B
:104980000281026042604A1CD1B24029F2D37047D2
:1049900070B5044607F054FB0020DE490870DE497C
:1049A0000870DE490870DE490860DE490860DE49AB
:1049B0000870DE490870DE490870DE490860DE498B
:1049C0000860DE490860DE490870DE4800680A2198
:1049D000B0FBF1F0DC490860DC48006858B1DC4805
:1049E000056845B1D948066803E0761E00202860B6
:1049F0002D1D002EF9D10020D6490860D649086047
:104A0000D6490860D6490860D6490860D64908608A
:104A1000D6490860D649087003F016F8FFF7A8FFDA
:104A2000204601F03FFE208800B170BD204602F014
:104A30007AF9208800B1F8E7204602F0A0F9208832
:104A400000B1F2E7204602F0E7FF208800B1ECE772
:104A5000204603F093FC208800B1E6E7204604F0EE
:104A6000A9F8208800B1E0E7204606F07DF920880B
:104A700000B1DAE7204601F09AFF208800B1D4E7C0
:104A80002046FFF753FF208800B1CEE7204606F00E
:104A9000C2FA208800B1C8E7204604F044FB208811
:104AA00000B1C2E7204607F01EFA208800B1BCE73B
:104AB00000F020FEFFF79EFE00BFB6E796480078A4
:104AC000012800D0704793480078FA2800DBF9E706
:104AD00090480078401C8F49087000BFF2E710B57D
:104AE00000248D480078012800D010BD00BFFEF7DB
:104AF000B5FA044600BF8748007828B900BF2046B1
:104B0000FEF7B0FA00BFF0E782480078401E814906
:104B1000087008460078002805DD00BF2046FEF733
:104B2000A1FA00BFE1E77D480078002805DD00BF5D
:104B30002046FEF797FA00BFD7E702F08FFF7B49C8
:104B400008700846007800EB4000714951F82000D9
:104B5000744908600846006871490968884205D1AF
:104B600000BF2046FEF77EFA00BFBEE76D48006832
:104B7000D0F89000401C6B490968C1F890007D484E
:104B80000068401C7B4908604FF080507A490860FB
:104B900000BF2046FEF766FA00BF00BFA5E710B5CC
:104BA00000245C480078002800DD10BD5B480078D8
:104BB000002800DDF9E700BFFEF750FA044600BF09
:104BC00002F04CFF594908700846007800EB40009D
:104BD0004F4951F820005349086008460068504981
:104BE0000968884205D100BF2046FEF73BFA00BFA6
:104BF000DBE74C480068D0F89000401C4949096840
:104C0000C1F890005B480068401C5A4908604FF0AA
:104C100080505949086000BF2046FEF723FA00BFC4
:104C200000BFC2E710B53D480078012803D1FEF768
:104C300099F84049086010BD70B504460025354814
:104C40000078002803DD46F66250208070BD3248AF
:104C50000078012803D045F689602080F6E72F48C8
:104C60000078FA2803DB45F209202080EEE700BF38
:104C700000BFFEF7F3F9054600BF00BF27480078E4
:104C8000401C26490870FFF7CDFF00BF00BF284633
:104C9000FEF7E8F900BF00BF0020208000BFD5E785
:104CA00010B51E48007880B9FEF75CF82149096804
:104CB000441A21480068A04201D21F4804601F48DE
:104CC0000068A04201D21D48046010BD70B50446C2
:104CD000002510480078002850DD46F665502080F9
:104CE00070BD0000AC00002010010020E4E40008CA
:104CF000E0E40008DCE4000875432F4F532D4949D8
:104D0000492049646C65205461736B0008210020C0
:104D10009C220020B0000020B1000020F8000020FC
:104D20005001002054010020DE000020DF000020A0
:104D3000E0000020EC000020F0000020F400002043
:104D4000000100203CE50008FC0000200CE5000804
:104D500008E5000890000020940000209800002042
:104D60009C000020A0000020A4000020A80000203B
:104D70002E0100202401002004ED00E0F948007815
:104D8000012803D045F68960208070BDF648007880
:104D900018B946F664502080F7E700BF00BFFEF761
:104DA0005DF9054600BF00BFEF480078401EEE49A0
:104DB00008700846007800280ADD00BF00BF2846BA
:104DC000FEF750F900BF00BF46F663502080DCE7D5
:104DD000FFF766FF00BF00BF2846FEF743F900BF9C
:104DE00000BFFFF7DCFE0020208000BFCDE72DE9EB
:104DF000F04105460C461646002700BF00BFFEF7EF
:104E00002DF9074600BF00BF012D03D00020D74970
:104E1000087002E00120D549087014B1D44804603C
:104E200006E0D44800680A21B0FBF1F0D0490860E0
:104E300000BF00BF3846FEF715F900BF00BF0020D5
:104E40003080BDE8F08110B501460C8924B1012CF9
:104E500003D0022C0CD101E000BF14E008684A68BE
:104E600002610024C4601461D0600A6048600AE0F6
:104E700008684A68C36800241C61C4600261D0608D
:104E80000B60486000BF00BF10BD2DE9F041044633
:104E90000027B9480078002804DD48F2D14020807E
:104EA000BDE8F081B0480078002803DD46F6635085
:104EB0002080F5E7AD480078012803D046F67B1046
:104EC0002080EDE700BF00BFFEF7C8F8074600BF2F
:104ED00000BFAA48007800EB4000A94901EB80061A
:104EE000308902280ADA00BF00BF3846FEF7BAF858
:104EF00000BF00BF46F67A102080D1E73046FFF7AA
:104F0000A2FF3568686D18B999480068A86501E086
:104F1000686DA86500BF00BF3846FEF7A3F800BF64
:104F200000BFFFF73CFE0020208000BFB8E710B5AF
:104F300004468C480078E8B902F090FD9149087069
:104F4000084600788D4908708E48007800EB4000D4
:104F50008B4951F820008C490860084600688B494D
:104F6000086001207F49087007F0ACFB43F69920E8
:104F7000208002E045F68A60208010BD01460020B6
:104F8000088047F25C60704730B548B14568C1F8A9
:104F9000C05000F10804226893681D6AC56113E0DF
:104FA00091F83450022D02D0072D08D103E078A5E6
:104FB000C1F8C05007E078A5C1F8C05003E079A55A
:104FC000C1F8C05000BF00BF30BDF0B58E6896F884
:104FD000375007893FB90127078100274F600F60CD
:104FE0000160416023E007897F1C0781026806E0B9
:104FF000946894F83770AF4200DD02E05268002AEE
:10500000F6D100BF32B900274F6043680B6059608A
:1050100041600CE017682FB9116000270F604A60EB
:10502000016004E013680B604A6059601160F0BDD4
:1050300010B5C287016300230AE000244C600C60B5
:105040000C614C610C83CC61886020315C1CA3B284
:105050009342F2DB10BD2DE9F041054695F837008B
:1050600000EB4000464901EB80042F69EE6887B9E8
:1050700046B9002020812060606095F8370002F07A
:105080000FFD0EE02089401E208100203061266047
:1050900007E02089401E2081FE600EB9676000E0B5
:1050A000376100202861E860BDE8F08138B504462A
:1050B0000D4685B16B4602222946204605F0ECFFDD
:1050C000BDF8000018B9032084F8360006E002207D
:1050D00084F8360002E0022084F836002046FFF70C
:1050E000BAFF38BD2DE9F04105460C4616461F466D
:1050F0002648006880F8346000202449096881F857
:105100003500394621480068FFF7D0FF6CB104F143
:105110000808EC60012229461C480068FFF788FF58
:1051200029464046FFF751FF06E00020174909686D
:10513000C887164909680863144801682046FFF7C4
:1051400023FFBDE8F08110B50489012C03D10024B0
:105150000460446033E00C6834BB4A680024146087
:1051600002602CE0B1000020F800002000010020C7
:10517000FC0000203CE50008B0000020DE0000201C
:105180009C220020DF00002054010020500100205C
:105190005461736B205100005461736B2053656D33
:1051A00000000000200000004C6824B90B680024B7
:1051B0005C60436003E00B684A685A6013600489CE
:1051C000641E048100244C600C6010BD2DE9F04188
:1051D0000446256BE68F0AE0D5F80C8008F1080735
:1051E00029463846FFF7AFFF2035701E86B2002EE5
:1051F000F2DC0020E0872063BDE8F08130B5034693
:10520000086BCC8F08E0C5689D4202D10361C26182
:1052100004E02030651EACB2002CF4DC00BF30BDD1
:1052200010B590F8373003EB4303F74C04EB8301E0
:105230000B893BB901230B810023C3600361086024
:10524000486009E00B895B1C0B810B68C36000237D
:1052500003610A681061086010BD10B590F837301E
:1052600003EB4303E84C04EB83010B893BB90123B7
:105270000B810023C36003610860486008E00B896C
:105280005B1C0B810023C3604A680261D0604860E8
:1052900010BD10B5044694F8370002F0F1FB94F805
:1052A0003700DA490978884203D12046FFF7D5FF55
:1052B00002E02046FFF7B4FF10BD10B504462046BB
:1052C00005F07AFD94F8360000F0040010B920468D
:1052D000FFF7DFFF10BD70B505460C46164694F883
:1052E0003600082847D2DFE800F004050809060761
:1052F000272800BF00BF00BF3EE000BF94F8340085
:10530000032804D1324621462846FFF777FF0020C4
:10531000E065A4F86000266415B12046FFF756FF4B
:105320002046FFF7CAFF00203434A07001206070CF
:10533000002004F834091FE000BF94F8340003286B
:1053400004D1324621462846FFF758FF0020E06589
:10535000A4F86000266415B12046FFF737FF204609
:1053600005F02AFD04203434A07001206070002074
:1053700004F8340900E000BF00BF70BD30B5AFF2E3
:10538000DC15C1F8C05000F1080422681AB1936816
:105390001D6AC56102E0AFF2F415C56130BD2DE9AB
:1053A000F04304460F4684F83770256BB4F83E800E
:1053B00013E0D5F80C9009F108063089012807D9C7
:1053C00029463046FFF7BFFE29463046FFF7FDFD70
:1053D0002035A8F101001FFA80F8B8F1000FE8D1DC
:1053E000BDE8F083002101604160018170470389BD
:1053F0005B1C038103684B6000230B60026802B1F1
:10540000116001600389012B00D14160704730B504
:105410000346086BCC8F08E0C5689D4202D103614A
:10542000C26104E02030651EACB2002CF4DC00BF89
:1054300030BD70B506460C46154694F8360008286F
:1054400045D2DFE800F0040508090607262700BF5B
:1054500000BF00BF3CE000BF94F83400032804D133
:105460002A4621463046FFF7D2FF0020E065A4F827
:10547000600025642046FFF7A9FE2046FFF71DFFC8
:1054800000203434A07002206070002004F8340939
:105490001EE000BF94F83400032804D12A462146B8
:1054A0003046FFF7B4FF0020E065A4F860002564F3
:1054B000204605F081FC2046FFF788FE04203434A6
:1054C000A07002206070002004F8340900E000BFE2
:1054D00000BF70BDF0B50446059E086BCD8F0AE095
:1054E000C768A74204D1046142610383C66104E036
:1054F00020306F1EBDB2002DF2DC00BFF0BD2DE9E3
:10550000F84306460C4617469846089D94F8360020
:10551000082850D2DFE800F00405080906072B2C04
:1055200000BF00BF00BF47E000BF94F8340003286D
:1055300007D143463A46214630460095FFF7CAFF59
:1055400003E0E765A4F86080256436B12046FFF7E4
:105550003DFE21463046FFF711FF2046FFF7ADFE26
:1055600000203434A070607004F8340924E000BFD7
:1055700094F83400032807D143463A462146304682
:105580000095FFF7A7FF03E0E765A4F860802564B6
:10559000204605F011FC36B12046FFF717FE2146E4
:1055A0003046FFF7EBFE04203434A070002060701A
:1055B00004F8340900E000BF00BFBDE8F88310B56F
:1055C000002400BFFDF74AFD044600BF002010493B
:1055D000087010481049086008460068D0F890002C
:1055E000401C0968C1F890000C480068401C0B4939
:1055F00008604FF080500A49086000BF2046FDF760
:1056000031FD00BF10BD00009C220020DE00002004
:10561000DF000020CC2100205401002024010020C4
:1056200004ED00E070B5054600262E4800780128FC
:1056300000D070BD00BF00BFFDF710FD064600BFE3
:1056400000BF2C683CB900BF00BF3046FDF70AFD23
:1056500000BF00BFEDE72448844207D100BF00BF70
:105660003046FDF7FFFC00BF00BFE2E7A06D10B1C0
:10567000A06D401EA065A06D38B100BF00BF3046D0
:10568000FDF7F0FC00BF00BFD3E72889022807DA46
:1056900000BF00BF3046FDF7E5FC00BF00BFC8E714
:1056A00012480078002807DD00BF00BF3046FDF734
:1056B000D9FC00BF00BFBCE72846FFF7C4FB2C683D
:1056C000606D18B90A480068A06501E0606DA065CA
:1056D00000BF00BF3046FDF7C5FC00BF00BF00BFE4
:1056E000A7E700000001002008210020F8000020AA
:1056F000FC000020244825482548264826482748FD
:10570000274828482848294829482A482A482B4811
:105710002B482C482C482D482D482E482E482F48E1
:105720002F483048304831483148324832483348B1
:105730003348344834483548354836483648374881
:10574000374838483848394839483A483A483B4851
:105750003B483C483C483D483D483E483E483F4821
:105760003F484048404841484148424842484348F1
:1057700043484448444845484548464846484748C1
:10578000474800BF7047000080E50008E8E60008D1
:1057900082E5000883E5000884E5000888E5000844
:1057A0008CE5000889E50008B4E50008B5E50008C7
:1057B000B6E50008B8E50008BAE50008BCE5000851
:1057C000BEE50008C0E50008E0E50008E2E50008E5
:1057D000E4E50008E6E50008E8E50008EAE5000879
:1057E000ECE5000818E6000819E600081AE60008CB
:1057F0001CE600081EE600081FE6000820E6000878
:1058000022E6000824E6000826E6000828E600084C
:105810002AE600082CE600085CE600085DE60008C1
:105820005EE600085FE6000860E6000862E6000841
:1058300064E600088CE600088DE600088EE60008A5
:105840008FE6000890E6000892E6000894E600085B
:1058500098E6000899E600089AE600089BE600082A
:105860009CE600089DE600089EE600089FE600080A
:10587000A0E60008A2E60008A3E60008A4E60008E7
:10588000A6E60008A8E60008A9E60008ACE60008BD
:10589000E0E60008E1E60008E2E60008E4E60008C9
:1058A000E6E60008F7A1C16100214161F6490968F7
:1058B00011B90021816105E0F34909688161F2496C
:1058C00009684861F049086070472DE9F0410446D5
:1058D0000E4617461D464FF00008EC480078002899
:1058E00004DD42F6E1602880BDE8F0811CB945F690
:1058F000C3502880F8E700BF00BF00BFFDF7AEFB34
:10590000804600BF00BFE2480078401CE0490870B4
:1059100000BF00BF4046FDF7A5FB00BF00BF00BFB2
:10592000DC482060666027620020606204F10800A5
:10593000FFF758FD2046FFF7B5FFD7480088401C09
:10594000D549088000BF00BF00BFFDF787FB804638
:1059500000BF00BFCE480078401ECD49087000BF90
:1059600000BF4046FDF77EFB00BF00BF00BF002028
:10597000288000BFB8E770B50446C8482060C8A0BA
:1059800060600020206204F108052846FFF72AFD28
:1059900070BD426981693AB9BB4B196009B10023F6
:1059A0004B610023836109E019B9002393614361CE
:1059B00004E091614A6100238361436170472DE9EE
:1059C000FC5F05468846144600200090AF480078EA
:1059D000002805DD43F2C92020800020BDE8FC9F9F
:1059E00025B945F6C35020800020F7E7B8F1000F35
:1059F00003D0B8F1010F02D100E000BF04E045F68A
:105A0000256020800020E9E700BFA249286888427D
:105A100004D045F6C45020800020DFE700BF00BF5F
:105A200000BFFDF71BFB009000BF00BF9848007847
:105A3000401C9749087000BF00BF0098FDF712FB9B
:105A400000BF00BF00BF05F10809B9F8086037467C
:105A5000B8F1000F03D0B8F1010F6ED16EE07FBB3B
:105A60002846FFF796FF8C480088401E8A49088028
:105A70002846FFF780FF00BF00BF00BFFDF7EEFA2A
:105A8000009000BF00BF82480078401E8049087027
:105A900008460078A8B984480088002809DD00BFBE
:105AA00000BF0098FDF7DEFA00BF00BFFFF787FDDB
:105AB0000EE000BF00BF0098FDF7D4FA00BF07E07A
:105AC0000AE000BF00BF0098FDF7CCFA00BF00BF9E
:105AD00000BF002020802FE000BF00BF00BFFDF707
