:020000040800F2
:100000002004002045010008F1040008D90200087E
:10001000ED040008B90100086F0A000800000000A4
:10002000000000000000000000000000B106000811
:10003000BD0100080000000079050008C5070008A0
:100040005F0100085F0100085F0100085F01000810
:100050005F0100085F0100085F0100085F01000800
:100060005F0100085F0100085F0100085F010008F0
:100070005F0100085F0100085F0100085F010008E0
:100080005F0100085F0100085F0100085F010008D0
:100090005F0100085F0100085F0100085F010008C0
:1000A0005F0100085F0100085F0100085F010008B0
:1000B0005F0100085F0100085F0100085F010008A0
:1000C0005F0100085F0100085F0100085F01000890
:1000D0005F010008650800085F0100085F01000873
:1000E0005F0100085F0100085F0100085F01000870
:1000F0005F0100085F0100085F0100085F01000860
:100100005F0100085F0100085F0100085F0100084F
:100110005F0100085F0100085F0100085F0100083F
:100120005F0100085F0100085F0100085F0100082F
:10013000DFF80CD000F02EF800480047C90D000889
:10014000200400200648804706480047FEE7FEE7F7
:10015000FEE7FEE7FEE7FEE7FEE7FEE7FEE7FEE777
:10016000050800083101000830B50B4601460020A3
:100170002022012409E021FA02F59D4205D303FA69
:1001800002F5491B04FA02F52844151EA2F10102EA
:10019000F1DC30BD064C074D06E0E06840F001039D
:1001A00094E8070098471034AC42F6D3FFF7C4FF39
:1001B000EC0E00080C0F000800BFFEE770472DE9A9
:1001C000F0410246002500260020002300240027DD
:1001D00091F803C00CF00F0591F803C00CF0100C5F
:1001E000BCF1000F03D091F802C04CEA050591F86C
:1001F00000C0BCF1000F31D0146800202BE04FF09C
:10020000010C0CFA00F3B1F800C00CEA03069E42A0
:1002100020D183004FF00F0C0CFA03F7BC4305FA12
:1002200003FC4CEA040491F803C0BCF1280F06D18A
:100230004FF0010C0CFA00FCC2F814C00AE091F86F
:1002400003C0BCF1480F05D14FF0010C0CFA00FCC3
:10025000C2F810C0401C0828D1D31460B1F800C007
:10026000BCF1FF0F34DD546800202EE000F1080CD3
:100270004FF0010808FA0CF3B1F800C00CEA0306CD
:100280009E4221D183004FF00F0C0CFA03F7BC43C0
:1002900005FA03FC4CEA040491F803C0BCF1280FF2
:1002A00005D100F1080C08FA0CF8C2F8148091F896
:1002B00003C0BCF1480F07D100F1080C4FF0010852
:1002C00008FA0CF8C2F81080401C0828CED35460FD
:1002D000BDE8F0810161704700BFFEE708B501216C
:1002E000082000F04BF910208DF80300C020ADF875
:1002F000000003208DF8020069460548FFF75FFF04
:100300000120044908600449C1F89C0108BD0000AF
:10031000000C0140988121420080214270B500F01C
:10032000A7F9002515E001200C490860052000F020
:10033000EDFC6006040E0A48D0F81C0108B144F038
:100340000104002005490860052000F0DFFC681C5E
:10035000C5B2082DE7DB204670BD00009881214220
:100360000080214210B5044600F090F900200D49AC
:10037000086004F001000C49C1F89C01052000F060
:10038000C5FC012007490860052000F0BFFC0020E3
:10039000044908600120091D0860052000F0B6FC32
:1003A00010BD0000988121420080214270B50446B2
:1003B00000F06CF900251EE00020124908600520BD
:1003C00000F0A4FC04F0800020B101200D49091DBB
:1003D000086003E000200B49091D0860052000F0BB
:1003E00095FC0120074908606006040E052000F016
:1003F0008DFC681CC5B2082DDEDB002001490860B9
:1004000070BD00009881214210B500F03FF9012035
:10041000094908600949C1F89801052000F076FCF7
:10042000002005490860052000F070FC0020034909
:10043000C1F8980110BD00009C812142008021423A
:1004400010B500F023F90020074908600120074992
:10045000C1F89801052000F059FC0120024908600C
:10046000052000F053FC10BD9C81214200802142F8
:1004700010B500F0FDF8012008490860052000F0E3
:1004800045FC0748D0F81C01C4B2002003490860AD
:10049000052000F03BFC204610BD00009881214261
:1004A0000080214208B52020ADF8000010208DF812
:1004B000030003208DF802000121482000F05EF8BF
:1004C00069460848FFF77BFE69460748FFF777FE55
:1004D00020210548FFF7FEFE20210248FFF7FAFE23
:1004E00008BD0000000C01400018014000BFFEE7FD
:1004F0007047000070B5002100230F22C47804B3B8
:10050000154C246804F4E064C4F5E064210AC1F1E8
:100510000403CA40447804FA03F184781440214368
:1005200009010E4C0678A155047804F01F0501243A
:10053000AC4005786D11AD0005F1E025C5F800412E
:1005400009E0047804F01F050124AC40044D06784E
:10055000761145F8264070BD0CED00E000E400E0A7
:1005600080E100E002490143024A11607047000047
:100570000000FA050CED00E07047000029B1064AC2
:1005800092690243044B9A6104E0034A92698243F0
:10059000014B9A61704700000010024030B5002105
:1005A0000022002400232D4D6D6805F00C0121B1BF
:1005B000042905D0082923D105E0294D056022E052
:1005C000274D05601FE0254D6D6805F47012234D21
:1005D0006D6805F48034022505EB92421CB9214D6B
:1005E000554305600BE01D4D6D6805F400351DB1E8
:1005F0001C4D5543056002E0194D5543056002E06E
:10060000174D056000BF00BF144D6D6805F0F00187
:100610000909154D6B5C0568DD4045600F4D6D683F
:1006200005F4E061090A104D6B5C4568DD408560AA
:100630000A4D6D6805F46051C90A0B4D6B5C456845
:10064000DD40C560054D6D6805F44041890B074DDF
:100650006B5CC568B5FBF3F5056130BD0010024069
:1006600000127A0000093D00000000201000002068
:1006700008B58020ADF8000048208DF803006946D9
:100680000148FFF79CFD08BD000C014008B5802023
:10069000ADF8000003208DF8020010208DF8030053
:1006A00069460248FFF78BFD08BD0000000C0140C1
:1006B000704710B500F002F810BD00000CB5002026
:1006C000019000903348006840F480303149086060
:1006D00000BF3048006800F4003000900198401CD2
:1006E0000190009818B90198B0F5A06FF1D1294890
:1006F000006800F4003010B10120009001E00020FB
:1007000000900098012843D12348006840F0100071
:10071000214908600846006820F003000860084688
:10072000006840F0020008601A48406819494860B3
:100730000846406848600846406840F48060486069
:100740000846406820F47C1048600846406840F441
:10075000E81048600846006840F08070086000BFFC
:100760000C48006800F000700028F9D00948406883
:1007700020F00300074948600846406840F0020046
:10078000486000BF0348406800F00C000828F9D119
:100790000CBD00000010024000200240042808D1D7
:1007A0004FF0E021096941F004014FF0E0221161AE
:1007B00007E04FF0E021096921F004014FF0E02249
:1007C000116170477047000010B504466FF00400D7
:1007D000FFF7E4FFE11704EB5171C910074A1160FC
:1007E0001046006800EB4001C1EBC0104FF6FF71EE
:1007F00001EAC0000249088010BD0000140000207A
:100800001800002010B51348006840F0010011499D
:10081000086008464068104908400E49486008468C
:1008200000680E4908400B4908600846006820F43B
:10083000802008600846406820F4FE0048604FF4BD
:100840001F008860FFF735FF4FF000600449086023
:1008500010BD0000001002400000FFF8FFFFF6FE90
:1008600008ED00E010B540F225510C4800F03AF8D0
:10087000012812D1094800F0F1F8C4B22146074816
:1008800000F0F1F800BF4021044800F01EF80128F4
:10089000F9D14021014800F003F810BD00380140B3
:1008A00001F40072B2F5007F00D100BFCA4302809C
:1008B000704721B1828942F40052828104E082892A
:1008C0004DF6FF731A408281704702460020B1F551
:1008D000007F00D100BF13880B400BB1012000E066
:1008E0000020704770B50246002400230025002038
:1008F00040F66A16B14200D100BFC1F3421501F0C3
:100900001F03012606FA03F3012D02D19689334015
:1009100006E0022D02D1168A334001E0968A334068
:100920000C12012606FA04F41688344013B10CB1F7
:10093000012000E0002070BDF0B503460024002631
:100940000025002040F66A17B94200D100BF1846C2
:10095000C1F3421401F01F06012707FA06F5012C26
:1009600001D10C3004E0022C01D1103000E0143031
:100970001AB107682F43076002E00768AF430760BA
:10098000F0BD00002DE9F04786B005460E46002474
:10099000A24600BFA1460027B08900B100BF2F4684
:1009A0002C8A4CF6FF700440F08804432C82AC89FA
:1009B0004EF6F3100440B08831890843718908432A
:1009C0000443AC81AC8A4FF6FF400440B089044335
:1009D000AC8201A8FFF7E2FD1F48874202D1DDF893
:1009E00010A001E0DDF80CA0A88900F4004040B19F
:1009F0000AEBCA0000EB0A1031684900B0FBF1F8BD
:100A000007E00AEBCA0000EB0A1031688900B0FB6E
:100A1000F1F86420B8FBF0F004012009642101FB27
:100A20001089A88900F4004040B1322000EBC900D1
:100A3000B0FBF1F000F00700044308E0322000EBC7
:100A400009106421B0FBF1F000F00F0004432C8189
:100A500006B0BDE8F08700000038014001468888F4
:100A6000C0F308007047C1F308028280704700BFDE
:100A7000FEE7000010B586B0044601218803FFF7A9
:100A80007DFD01210420FFF779FD4FF40070ADF8E2
:100A9000140003208DF8160018208DF8170005A902
:100AA0002048FFF78CFB4FF48060ADF81400032062
:100AB0008DF8160004208DF8170005A91948FFF7D6
:100AC0007EFB01940020ADF810000C20ADF80E0064
:100AD0000020ADF80C00ADF80A00ADF8080001A93F
:100AE0001148FFF74FFF25208DF8000001208DF8F9
:100AF000030003208DF801008DF802006846FFF71F
:100B0000F9FC01210848FFF7D4FE40210648FFF711
:100B1000C7FE012240F225510348FFF70DFF06B042
:100B200010BD000000080140003801400FB4054B23
:100B300010B503A9044A029800F018F810BC5DF83B
:100B400014FB0000A50D00081C00002002E008C8EE
:100B5000121F08C1002AFAD170477047002001E037
:100B600001C1121F002AFBD1704700002DE9FF4F81
:100B700089B09B460446002506E025280BD05A463E
:100B80000B999047641C6D1C20780028F5D10DB09E
:100B90002846BDE8F08F0027B8460122474900E00B
:100BA000074314F8013F203B02FA03F00842F7D153
:100BB00020782E2819D114F8010F47F004072A28AD
:100BC0000ED06FF02F022078A0F1300109290CD847
:100BD00008EB880102EB410100EB0108641CF2E71D
:100BE0000A98641C50F8048B0A9020780028CED014
:100BF000642808D0692806D075281ED05A460B995B
:100C000090476D1C58E00A994FF00A0901C90A91F2
:100C1000002802DA40422D2102E0390504D52B21BB
:100C20008DF82010012103E0F90704D02021F7E717
:100C30008A4608AE0DE00021FAE70A994FF00A094A
:100C400001C90A91F7E74946FFF78EFA303106F8F5
:100C5000011D0028F7D1ADEB060000F1200978074F
:100C600001D44FF00108C84502DDA8EB090000E0FF
:100C700000208046002706E008A85A46C05D0B9970
:100C800090476D1C7F1C5745F6DB04E030205A4628
:100C90000B9990476D1CB8F10001A8F10108F5DC33
:100CA00005E016F8010B5A460B9990476D1CB9F1F7
:100CB0000001A9F10109F4DC641C65E709280100C1
:100CC0000146114A12884A434FF0E0235A6100223C
:100CD0009A611A46126942F001021A6100BF4FF090
:100CE000E022106900F001021AB100F48032002AFB
:100CF000F5D04FF0E022126922F001024FF0E0231C
:100D00001A6100229A617047180000200146114ABA
:100D100012684A434FF0E0235A6100229A611A4652
:100D2000126942F001021A6100BF4FF0E02210691F
:100D300000F001021AB100F48032002AF5D04FF021
:100D4000E022126922F001024FF0E0231A61002232
:100D50009A617047140000202DE9F04106460D46C7
:100D60002A460221304600F09BF80120FFF7A8FF39
:100D70004FF47A7700BF781E071EFCD10848006840
:100D80000028F8D00221304600F05EF80446240224
:100D90000321304600F058F804442046BDE8F081B5
:100DA0009881214270B504460D46E1B20548FFF72F
:100DB0005AFE00BF80210348FFF787FD0028F9D0C5
:100DC000204670BD0038014000BF4FF4A060FFF71F
:100DD000C9FBFFF767FB4FF41650FFF74BFE4820A7
:100DE000FFF7F2FCFFF77AFA71220221E82000F007
:100DF00057F88A220221E82000F052F84FF4FA70E6
:100E0000FFF75EFFC0220221E82000F049F814E05D
:100E1000CC21E820FFF7A0FF84B2214607A0FFF70E
:100E200085FE0848006808B9012000E00020054957
:100E300008604FF47A70FFF743FFE9E7BEE0C0EBCC
:100E4000256400009481214270B504460D46FFF7E9
:100E5000DBFA2046FFF7AAFAFFF70AFB10B90DA04C
:100E6000FFF764FE2846FFF7A1FAFFF701FBFFF743
:100E7000CBFA611CC8B2FFF799FAFFF7F9FAFFF74E
:100E80004DFA06460120FFF76DFAFFF7D9FA304612
:100E900070BD0000D0B4B4EDCEF30D0A0000000028
:100EA00070B506460C461546FFF7AEFA3046FFF71A
:100EB0007DFAFFF7DDFA10B109A0FFF737FE2046F3
:100EC000FFF774FAFFF7D4FA2846FFF76FFAFFF737
:100ED000CFFAFFF7B5FA0A20FFF7F2FE70BD000067
:100EE000D0B4B4EDCEF30D0A000000000C0F0008E2
:100EF00000000020200000004C0B00082C0F000810
:100F000020000020000400005C0B0008000000002E
:100F1000010203040102030406070809020406088B
:0C0F2000000000000000000000000000C5
:0400000508000131BD
:00000001FF
